:020000040800F2
:10000000A8E200206102000879B10008D986000842
:100010004DB10008BF1F0008191B010800000000B7
:10002000000000000000000000000000A101000826
:10003000F133000800000000FD01000859EB000842
:100040007B0200087B0200087B0200087B0200089C
:100050007B0200087B020008F33300087B020008E3
:100060007B020008FD330008073400087B0200080B
:10007000C92700087B0200087B0200087B020008F9
:100080007B0200087B0200087B0200087B0200085C
:100090002D2000087B0200087B02000811340008B4
:1000A0007B0200087B0200087B0200087B0200083C
:1000B000A1EC00087B0200087B0200087B0200081C
:1000C0007B0200087B0200087B0200087B0200081C
:1000D0007B02000899F400087B0200086DF5000817
:1000E0007B0200087B0200087B0200087B020008FC
:1000F0007B0200087B0200087B0200087B020008EC
:100100007B0200087B0200087B0200087B020008DB
:100110007B0200087B0200087B0200087B020008CB
:100120007B020008D9270008E92700088130000871
:100130007B0200087B0200087B0200087B020008AB
:10014000A52000087B0200087B0200087DB10008A2
:10015000913000087B0200087B0200087B02000847
:100160007B0200087B0200087B0200087B0200087B
:100170007B0200087B0200087B02000800000000F0
:100180007B0200087B020008DFF810D001F00CF8B9
:1001900000480047392F0108AFF30080A8E2002093
:1001A0002C4B19680868B0E8F04F80F30988BFF35A
:1001B0006F8F4FF0000080F311887047000000003F
:1001C00008480068006880F308884FF0000080F35A
:1001D000148862B661B6BFF34F8FBFF36F8F00DF35
:1001E00000BF00BF08ED00E0DFF80C00016841F43B
:1001F00070010160704700BF88ED00E0EFF30980F7
:10020000BFF36F8F134B1A681EF0100F08BF20ED5D
:10021000108A20E9F04F106009B44FF0500080F3CD
:100220001188BFF34F8FBFF36F8F14F0C1FC4FF0F5
:10023000000080F3118809BC19680868B0E8F04F25
:100240001EF0100F08BFB0EC108A80F30988BFF3CE
:100250006F8F704748030020EFF305807047000060
:100260000648804706480047FEE7FEE7FEE7FEE750
:10027000FEE7FEE7FEE7FEE7FEE7FEE73DEC0008EF
:10028000890100089FED1A1AF5EE000A40EE010AF6
:10029000BDEEE00AF5EEC00A10EE100AF1EE10FA1B
:1002A00038BF401E00EE100A1349F7EE001AB8EEF0
:1002B000C00A30EEC00ADFED0F0A20EE200AFCEE85
:1002C000C00A10EE900AC0F3080000EE900A01EB9D
:1002D0008000F8EE600A90ED011A70EE600A90ED71
:1002E000000A71EEE01A21EE800A00EE810A7047E2
:1002F00083F9223E00000044405C0108DFED190A4A
:10030000B5EEC00A60EE200ABDEEE01A11EE100A4A
:10031000F1EE10FA38BF401E00EE100A1349F7EE56
:10032000001AB8EEC00A30EEC00ADFED0F0A60EE28
:10033000200ABCEEE00A10EE100AC0F3080000EE3E
:10034000100A01EB8000B8EE400A90ED011A70EE41
:10035000C00A90ED000A71EEE01A21EE800A00EE6C
:10036000810A704783F9223E00000044405C010886
:1003700070B405880E884468D1F804C05368B5424B
:1003800008D140884988884201BF11888D42518830
:10039000884203D070BC6FF00200704705FB00F18B
:1003A000880827D094ED001ADCED000A94ED010ACC
:1003B000DCED011A31EE201AD4ED020A70EE211A9A
:1003C0009CED020A83ED001AC3ED011A94ED031AA5
:1003D000DCED031A30EE800A401E71EE210A83ED37
:1003E000020A04F11004C3ED030A03F110030CF137
:1003F000100CD7D111F0030030D0B0F1004F30D243
:1004000000282BDD211F1B1FACF1040210F0010F8F
:100410000AD091ED010AD2ED010A091D121D30EE3C
:10042000200A83ED010A1B1D400817D091ED010A37
:10043000D2ED010A401E30EE200A83ED010A91ED53
:10044000020AD2ED020A01F1080102F1080230EEBF
:10045000200A83ED020A03F10803E7D170BC0020F3
:100460007047B4EC010A401EFCEC010A30EE200A91
:10047000A3EC010AF5D1F1E70180428043607047A7
:100480002DE9F34F84B004984068009048680190CB
:100490000498B0F800E04588DFEDFE0A00200290E5
:1004A000B0EE600AAE4506D108884988884204BF8C
:1004B0007146864504D06FF0020006B0BDE8F08FAB
:1004C00001985FEA010C18BFB7EE001A3DD000BFDB
:1004D000BEEB0C0117D0B1F1004F80F01F82002954
:1004E00011DD021F11F0010F1CBFC2ED010A121D28
:1004F0004B1006D0C2ED010AC2ED020A08325B1EA3
:10050000F8D100EB8100BCF10102A0EC011A19D076
:10051000B2F1004F80F00882002A13DD031F12F0B1
:10052000010F1CBFC3ED010A1B1D511008D000BFF5
:10053000C3ED010AC3ED020A491E03F10803F7D116
:1005400000EB8200BCF1010CC2D14FF00008039512
:10055000002D14BFB0EE602A002000F0BF8100BF64
:10056000009908FB05F001EB800B0199DBED002AF7
:1005700001EB80000346F0EE421AC64552D9AEEBBD
:100580000802ABEB850112F0010F17D001EB8501DA
:1005900091ED000AB5EEC00AF1EE10FA07DDB4EEF7
:1005A000E10AF1EE10FA09DDF0EE401A06E0B1EED4
:1005B000400AF4EEC01AF1EE10FAF5D3521031D021
:1005C00001EB850C9CED000AB5EEC00AF1EE10FAC5
:1005D00005DDB4EEE10AF1EE10FA09DD06E0B1EE58
:1005E000400AF4EEC01AF1EE10FA01D2F0EE401A11
:1005F00001EBC50191ED000AB5EEC00AF1EE10FA6B
:1006000005DDB4EEE10AF1EE10FA09DD06E0B1EE27
:10061000400AF4EEC01AF1EE10FA01D2F0EE401AE0
:10062000521ECDD1F5EEC01AF1EE10FA00F0738132
:10063000F5EEC02A0126F1EE10FA0099D4BFB1EE12
:10064000620AB0EE620AB4EE610AF1EE10FA1CBF63
:10065000AEEB0802B2F1010C47D005FB08F201EB4A
:10066000820292ED001A00BFB0EE410A05FB06F4CB
:10067000B5EEC00A00EB8404F1EE10FACCBFF0EE48
:10068000400AF1EE400AF4EE610AF1EE10FA28D1C8
:10069000B5EB080C11D0BCF1004F7DD2BCF1000FBE
:1006A0000BDD00BF92ED000AD1ED000ABCF1010C98
:1006B000E2EC010AA1EC010AF4D129000ED0B1F15B
:1006C000004F6AD2002909DD94ED000AD0ED000A3E
:1006D000491EE4EC010AA0EC010AF5D101200290C8
:1006E0000BE0761CBCF1010CBED10298012804D0AD
:1006F000F5EEC02AF1EE10FA7ED09BED000AB5EBC4
:1007000008009A465946064622D0B0F1004F74D2EE
:1007100000281DDD091F10F0010F06D0F0EE400A81
:1007200080EEA01A81ED011A091D401010D000BF03
:10073000D1ED010A401E80EE801A81ED011A91ED83
:10074000021AC1EE000AC1ED020A01F10801EFD15F
:10075000280026D0B0F1004F7ED2002821DDAAF17A
:10076000040110F0010F06D0D1ED010A80EE801ACD
:1007700081ED011A091D401013D000BFD1ED010A0F
:10078000401E80EE801A81ED011AD1ED020A80EE42
:10079000801A81ED021A01E0CBE0D6E001F10801F8
:1007A000ECD1DDE900124FF000095FEA0E0773D0CB
:1007B000C14504BF01EB860102EB850274D091EDC7
:1007C000000ADC465046330035D01C46B6F1004FD7
:1007D0007ED2002C2FDD0B1FABF1040C16F0010FA5
:1007E0000FD0F0EE400ADCED011AB0EE601A00EE18
:1007F000E11A83ED011A01E08DE0B1E01B1D0CF15F
:10080000040C741015D000BFD3ED010A9CED011A41
:1008100040EE410AC3ED010AD3ED020A9CED021A33
:100820000CF1080C40EE410AC3ED020A0833641EC5
:10083000EAD101EB86012B0036D0B3F1004F72D222
:10084000002B31DDA2F1040CAAF1040013F0010F1A
:100850000CD0DCED010A00E08BE090ED011A001DE8
:1008600040EE410ACCED010A0CF1040C5C1019D0E9
:10087000DCED010A90ED011A40EE410ACCED010ACF
:10088000DCED020A90ED021A083040EE410ACCED90
:10089000020A03E0000000000DE005E0641E0CF118
:1008A000080CE5D102EB830201EB88017F1E09F100
:1008B00001097FF47DAF009808F10108001D009048
:1008C0000398401E03907FF44BAE0299012900E08B
:1008D00058E004BF06B0BDE8F08F00BFB5EEC00A17
:1008E000F1EE10FA7FF4E9AD04990EFB05F3002B4D
:1008F0004A684FF000010BD902EB810C9CED000A15
:10090000B5EEC00AF1EE10FA02D1491C8B42F3D8C1
:100910008B427FF4D2AD6FF00400CEE5E0EC010A2B
:10092000491EFBD1EFE538E0E0EC010A521EFBD195
:1009300008E692ED000AD1ED000ABCF1010CE2ECF0
:10094000010AA1EC010AF4D1B7E694ED000AD0ED5A
:10095000000A491EE4EC010AA0EC010AF5D1BDE64B
:10096000D1ED000A401E80EE801AA1EC011AF7D1E9
:10097000EEE6D3ED000A401E80EE801AA3EC011AC9
:10098000F7D10EE7BCEC011AD1ED000A5B1E40EE78
:10099000410AE1EC010AF5D14DE7B0EC011AD2EDC4
:1009A000000A5B1E40EE410AE2EC010AF5D17BE74A
:1009B0002DE9F04F82B04668536801930588478857
:1009C0004B88002000900888874201BFB2F800C021
:1009D0006545528893421EBF6FF0020002B0BDE829
:1009E000F08F9FED412A4FEA970EC7F3400B00BFEF
:1009F000DDE9000202EB800A4A6898464FF00009E0
:100A0000B0EE420AB4465FEA0E0025D092ED001A1D
:100A1000DCED001A02EB8302DCED010A01EE810A33
:100A200092ED001A02EB8302401ED2ED001A02EB97
:100A3000830200EE810A9CED021ADCED030A000439
:100A40000CF1100C000C01EE210A92ED001A02EBE1
:100A5000830200EE810AD9D117F0030026D0ACF151
:100A60000404A2EB830210F0010F08D002EB830212
:100A7000D4ED010A92ED001A241D00EE810A5FEA0E
:100A80000B0013D002EB830CD4ED010A9CED001A8D
:100A900002EBC302401E00EE810AD4ED020A92ED81
:100AA000001A04F1080400EE810AEBD109F10100FB
:100AB000AAEC010A1FFA80F9486800EB8902A8F144
:100AC00001001FFA80F8B8F1000F99D1009806EBE9
:100AD0008706184480B20090681E05042D0C87D14B
:100AE00002B00020BDE8F08F0000000070B405885F
:100AF0000E884468D1F804C05368B54208D14088D4
:100B00004988884201BF11888D425188884203D0AC
:100B100070BC6FF00200704705FB00F1880827D019
:100B200094ED001ADCED000A94ED010ADCED011AE7
:100B300031EE601AD4ED020A70EE611A9CED020AE1
:100B400083ED001AC3ED011A94ED031ADCED031ACC
:100B500030EEC00A401E71EE610A83ED020A04F114
:100B60001004C3ED030A03F110030CF1100CD7D1EC
:100B700011F0030030D0B0F1004F30D200282BDD4F
:100B8000211F1B1FACF1040210F0010F0AD091EDE0
:100B9000010AD2ED010A091D121D30EE600A83ED33
:100BA000010A1B1D400817D091ED010AD2ED010A80
:100BB000401E30EE600A83ED010A91ED020AD2ED8B
:100BC000020A01F1080102F1080230EE600A83ED29
:100BD000020A03F10803E7D170BC00207047B4ECAF
:100BE000010A401EFCEC010A30EE600AA3EC010A87
:100BF000F5D1F1E72DE9F04F02884768B0F802809F
:100C00004888D1F8049082B04FF0000A164682421C
:100C100007BF098888456FF0020002B018BFBDE821
:100C2000F08F4FEA980B02EB42000190C8F34000AE
:100C3000CDF8000009EB8A01BBF1000F33D0019819
:100C400001EB820C01EB80043B46E64601EBC2055A
:100C50004FEA0B0093ED000A401E81ED000A93ED70
:100C6000010A01EB02118CED000A93ED020A0CEB74
:100C7000021C85ED000A93ED030A05EB021584EDD5
:100C8000000A04EB021403F11003E3D10EEB82001F
:100C900000EB820000EB8201ABF10100504307EB57
:100CA0000B1701EB001118F0030C21D03B1FA1EB37
:100CB00082011CF0010F06D093ED010A01EB8201C5
:100CC0001B1D81ED000A009880B100BF93ED010A61
:100CD00001EB820401EBC20184ED000A93ED020AEC
:100CE000401E81ED000A03F10803EFD107EB8C07EA
:100CF0000AF101001FFA80FA701E0604360C99D121
:100D000002B00020BDE8F08F2DE9F05F054600201D
:100D100092469B4688460646814640241BE028466C
:100D200041464746224600F09AF953465A46C01AB1
:100D3000914110D311461846224600F081F92D1A30
:100D400067EB01084F4622460120002100F078F9A8
:100D500017EB00094E41201EA4F10104DFDC4846D8
:100D600031462A464346BDE8F09F40EA01039B070F
:100D700003D009E008C9121F08C0042AFAD203E010
:100D800011F8013B00F8013B521EF9D27047D2B274
:100D900001E000F8012B491EFBD270470022F6E764
:100DA00010B513460A4604461946FFF7F0FF2046E1
:100DB00010BD421C10F8011B0029FBD1801A70479E
:100DC0002DE9FE4F81EA030404F0004421F00041C4
:100DD00000944FF0000B23F0004350EA01045ED072
:100DE00052EA03045BD0C3F30A54C1F30A552C44FE
:100DF000A4F2F3340194A0FB0254C1F3130141F4B3
:100E00008011C3F3130343F4801301FB024400FB7E
:100E1000034E840A970A44EA815447EA8357A4FBA5
:100E2000076802958D0A05FB07854FEA932C04FBA2
:100E30000C542705029D4FEA065847EA1637B5EBD2
:100E400008056EEB070C870E920E47EA811742EAFF
:100E50008312A7FB0201B6EB0B0164EB00042B0D20
:100E600043EA0C335E1844EB1C50DA465146E7FB6C
:100E70000201C5F313044FEA0B3343EA14534FEA5C
:100E80000432019C43EA0603A4F10C040294009C82
:100E9000CDE900B400F039F903B0BDE8F08F0020CF
:100EA0000146F9E72DE9F04D81EA030404F0004B17
:100EB00021F0004514464FF0000A23F0004150EAAB
:100EC000050220D054EA01021DD0C5F30A5702469C
:100ED000C5F31303C1F31300C1F30A5640F48015A0
:100EE00043F48013A7EB0608101BD64608F2FD3822
:100EF00073EB050002D308F1010801E092185B4191
:100F0000B8F1000F03DA00200146BDE8F08D0020A3
:100F10004FF48011064684460EE0171B73EB05075D
:100F200005D3121B63EB050306434CEA010C490889
:100F30004FEA300092185B4150EA0107EDD152EAC6
:100F4000030012D082EA040083EA0501084305D0B9
:100F5000101BAB4106D20122002306E000224FF015
:100F6000004302E06FF0010253101AEB06004CEB55
:100F7000085110EB0A0041EB0B01BDE8F04D00F009
:100F8000B5B800F0004230F000400AD0C10D01F5C4
:100F90006071C0F3160042EA0151C20840071143D4
:100FA000704700200146704730B5041E71F10004FF
:100FB00004DB4FF00044404264EB0101141E73F166
:100FC000000405DB1C464FF00043524263EB040370
:100FD0008B4208BF824230BD30B5041E71F100045F
:100FE00004DB4FF00044404264EB0101141E73F136
:100FF000000405DB1C464FF00043524263EB040340
:10100000994208BF904230BD01F0004330B421F056
:10101000004150EA010206D00A0DA2F56072C1F348
:101020001301002A02DC30BC00207047440F44EA60
:10103000C104C100E01830BC00EBC25000F01FB882
:10104000202A04DB203A00FA02F100207047914088
:10105000C2F1200320FA03F3194390407047202A7D
:1010600004DB203A21FA02F00021704721FA02F352
:10107000D040C2F120029140084319467047002930
:10108000A8BF7047401C490008BF20F0010070470E
:1010900010B4B0FA80FC00FA0CF050EA010404BF6E
:1010A00010BC704749B1CCF1200421FA04F411FAC4
:1010B0000CF118BF012121430843A3EB0C01CB1D08
:1010C0004FEA00614FEA102042BF002010BC704779
:1010D00000EBC35010440029A4BF10BC7047401C53
:1010E000490008BF20F0010010BC704710B5141E65
:1010F00073F1000408DA401C41F1000192185B41D1
:101100001A4301D120F0010010BD2DE9F04D9246A7
:101110009B4611B1B1FA81F202E0B0FA80F22032BE
:101120009046FFF78DFF04460F4640EA0A0041EA69
:101130000B0153465A46084313D0114653EA0100A7
:1011400019D0C8F140025046FFF789FF05460E4608
:10115000504659464246FFF773FF084305D0012029
:1011600004E020463946BDE8F08D0020054346EAFC
:10117000E0762C4337430A986305E40AA0EB0800A5
:101180000022FD0A44EA47540A3002D500200146F5
:10119000E9E7010510196941DDE9084500196941D0
:1011A000BDE8F04DA2E70000064C074D06E0E06800
:1011B00040F0010394E8070098471034AC42F6D39E
:1011C000FEF7E6FF8C640108AC64010870B58C186A
:1011D00010F8015B15F0070301D110F8013B2A114B
:1011E00006D110F8012B03E010F8016B01F8016B38
:1011F0005B1EF9D12B0705D40023521E0DD401F834
:10120000013BFAE710F8013BCB1A921C03E013F8FC
:10121000015B01F8015B521EF9D5A142D8D3002031
:1012200070BD000055494A6822F440324A604A685D
:1012300043681A434A600268526822F48072036865
:101240005A6002685368026943EA022203685A60DE
:101250000268526822F0407203685A60026852685D
:1012600083681A4303685A600268926822F4006235
:1012700003689A6002689268C3681A4303689A60B8
:101280003F4B826A9A4218D00268926822F07062DC
:1012900003689A6002689268836A1A4303689A60D6
:1012A0000268926822F0405203689A60026892686D
:1012B000C36A1A4303689A600BE00268926822F0DE
:1012C000706203689A600268926822F04052036874
:1012D0009A600268926822F0020203689A600268CB
:1012E0009368027E43EA420203689A602022125CFD
:1012F000A2B10268526842F4006203685A60026850
:10130000526822F4604203685A6002685368426A75
:10131000521E43EA423203685A6005E0026852688E
:1013200022F4006203685A600268D26A22F47002F2
:101330000368DA620268D36A828B521E43EA025261
:101340000368DA620268926822F4007203689A60A5
:101350000268936890F8302043EA422203689A605A
:101360000268926822F4806203689A600268936857
:10137000426943EA822203689A6070470023014071
:101380000100000F70B52DED028B0446FE4890F869
:10139000900000EB4001C1EBC01041F2B44101EB01
:1013A000400000EE100AB8EEC00AF84880ED000ACE
:1013B00094F83C0001280CD19FEDF50A84ED5D0AFC
:1013C0009FEDF30A84ED5E0A9FEDF10A84ED5F0A5A
:1013D00081E294F83E00012871D19FEDEE0AEE48BB
:1013E00080ED000A94F88C01012869D1B0200159E0
:1013F000B4F98501084400EE100AB8EEC00A40F2C4
:101400009510005D00F00400002801DD012000E0DF
:10141000002000EE900AF8EEE00ADF4890ED001A96
:1014200000EEC10A40F29510005D00F008000028AF
:1014300001DD012000E0002000EE900AF8EEE00A55
:10144000D54890ED001A00EE810AD44890F89A0130
:1014500000F00400002801DD012000E0002000EE83
:10146000900AF8EEE00ACC4890ED001A00EEC10AAE
:10147000CA4890F89A0100F00800002801DD012018
:1014800000E0002000EE900AF8EEE00AC24890ED7D
:10149000001A00EE810ABDEEC00A10EE100A05B275
:1014A000B4F9870100EE100AB8EEC00A40F29510B8
:1014B000005D00F00100002803DD012002E00BE2E6
:1014C00048E0002000EE900AF8EEE00AB24890ED05
:1014D000001A00EE810A40F29510005D00F0020053
:1014E000002801DD012000E0002000EE900AF8EE67
:1014F000E00AA94890ED001A00EEC10AA74890F84A
:101500009A0100F00100002801DD012000E0002028
:1015100000EE900AF8EEE00A9F4890ED001A00EE07
:10152000810A9E4890F89A0100F00200002801DD2F
:10153000012000E0002000EE900AF8EEE00A964854
:1015400090ED001A00EEC10ABDEEC00A10EE100ABE
:1015500006B2B0E0B4200159B4F98501084400EEA8
:10156000100AB8EEC00A40F29510005D00F00400C9
:10157000002801DD012000E0002000EE900AF8EED6
:10158000E00A854890ED001A00EEC10A40F295107D
:10159000005D00F00800002801DD012000E00020CF
:1015A00000EE900AF8EEE00A7B4890ED001A00EE9B
:1015B000810A7A4890F89A0100F00400002801DDC1
:1015C000012000E0002000EE900AF8EEE00A7248E8
:1015D00090ED001A00EEC10A704890F89A0100F0F0
:1015E0000800002801DD012000E0002000EE900A44
:1015F000F8EEE00A684890ED001A00EE810ABDEEB0
:10160000C00A10EE100A05B2B4F9870100EE100A04
:10161000B8EEC00A40F29510005D00F0010000280D
:1016200001DD012000E0002000EE900AF8EEE00A63
:10163000594890ED001A00EE810A40F29510005DC5
:1016400000F00200002801DD012000E0002000EE93
:10165000900AF8EEE00A504890ED001A00EEC10A38
:101660004E4890F89A0100F00100002801DD0120A9
:1016700000E0002000EE900AF8EEE00A464890ED07
:10168000001A00EE810A454890F89A0100F0020025
:10169000002801DD012000E0002000EE900AF8EEB5
:1016A000E00A3D4890ED001A00EEC10ABDEEC00A06
:1016B00010EE100A06B2D4ED360A9FED391A60EE2C
:1016C000810AB0EE600AFEF719FEF0EE400A00EE65
:1016D000106AB8EEC00A20EE808AD4ED360A9FED7B
:1016E000301A60EE810AB0EE600AFEF7CBFDF0EE34
:1016F000400A00EE105AB8EEC00A00EE208ABDEE95
:10170000C80A10EE100A00B200EE100AB8EEC00AC5
:101710002448D0ED000A20EE200A84ED5D0AD4EDC5
:10172000360A9FED1F1A60EE810AB0EE600AFEF7DE
:10173000A9FDF0EE400A00EE106AB8EEC00A20EEF5
:10174000808AD4ED360A9FED161A60EE810AB0EE5B
:10175000600AFEF7D3FDF0EE400A00EE105AB8EE34
:10176000C00A00EE608ABDEEC80A10EE100A00B290
:1017700000EE100AB8EEC00A0A48D0ED000A20EECA
:10178000200A84ED5E0A0FE06C390020440100203D
:101790000000000000401C4640010020663200208E
:1017A00035FA8E3C34010020FE480078C0BBFE486C
:1017B00090ED110AB5EEC00AF1EE10FA02DD90EDDF
:1017C000110A04E0F84890ED110AB1EE400A10EE5B
:1017D000101A0846FFF7D5FB41EC180B9FEDF30BF1
:1017E00053EC102BFFF7F8FB04D21FED170AEE485D
:1017F00080ED0C0AEF4890ED470AF0EE400A9FEDAD
:10180000EE1A9FEDEE0AE84809F0FCFEEC48D0ED38
:10181000210AEC4890ED001A01EE200A84ED5F0ADF
:10182000E0480078012856D1DF4890ED110AB5EE66
:10183000C00AF1EE10FA02DD90ED110A04E0DA4878
:1018400090ED110AB1EE400A10EE101A0846FFF7AB
:1018500098FB41EC180B9FEDD50B53EC102BFFF7C9
:10186000BBFB04D21FED360ACF4880ED0C0AD648E8
:10187000B0F89A0100F40070002816DDCD4890ED14
:10188000470AF0EE400A9FEDCC1A9FEDCC0AC648FD
:1018900009F0B8FECA48D0ED210ACA4890ED001AF6
:1018A00001EE200A84ED5F0A15E0C24890ED470A78
:1018B000F0EE400A9FEDC01A9FEDC40ABA4809F045
:1018C000A1FEBF48D0ED210ABE4890ED001A01EEFE
:1018D000200A84ED5F0A9BE194F83E000228FAD1C9
:1018E0009FEDBB0ABB4880ED000AB24890F8C401E6
:1018F00050B19FEDB90AB94880ED000A9FEDB80AD2
:10190000B84880ED000A04E09FEDB70AB34880EDC7
:10191000000AB648C088C0F34A00A0F5806000EE17
:10192000100AB8EEC00AB248D0ED000A20EE200A34
:10193000B4F9850100EE900AF8EEE00AAD4890EDAA
:10194000001A00EE810A40F29510005D00F00400DC
:10195000002801DD012000E0002000EE900AF8EEF2
:10196000E00A9C4890ED001A00EEC10A40F2951082
:10197000005D00F00800002801DD012000E00020EB
:1019800000EE900AF8EEE00A924890ED001A00EEA0
:10199000810A8D4890F89A0100F00400002801DDCA
:1019A000012000E0002000EE900AF8EEE00A8948ED
:1019B00090ED001A00EEC10A834890F89A0100F0F9
:1019C0000800002801DD012000E0002000EE900A60
:1019D000F8EEE00A7F4890ED001A00EE810ABDEEB5
:1019E000C00A10EE100A05B28048D0F80300C0F318
:1019F0008A30A0F5806000EE100AB8EEC00A7C487C
:101A0000D0ED000A20EE200AB4F9870100EE900A1A
:101A1000F8EEE00A774890ED001A00EE810A40F2F5
:101A20009510005D00F00100002801DD012000E0BC
:101A3000002000EE900AF8EEE00A664890ED001AE9
:101A400000EE810A40F29510005D00F002000028CF
:101A500001DD012000E0002000EE900AF8EEE00A2F
:101A60005C4890ED001A00EEC10A574890F89A01C0
:101A700000F00100002801DD012000E0002000EE60
:101A8000900AF8EEE00A534890ED001A00EE810A41
:101A90004D4890F89A0100F00200002801DD012075
:101AA00000E0002000EE900AF8EEE00A494890EDD0
:101AB000001A00EEC10ABDEEC00A10EE100A06B20E
:101AC000B4F9890110F5257F08DD48480089C0F385
:101AD0004A00A0F5806010F5257F07DC414890EDB5
:101AE000000AB1EE400A84ED5F0A04E03D4890ED43
:101AF000000A84ED5F0A94ED360AD4ED5F0A374898
:101B000090ED001AB0EE408A01EE208A5FEDDC0A0B
:101B100068EE200AB0EE600AFEF7F0FBF0EE400A35
:101B200000EE106AB8EEC00A60EE808A5FEDE40A4B
:101B300068EE200AB0EE600AFEF7A4FBF0EE400A61
:101B400000EE105AB8EEC00A40EE208ABDEEE80A58
:101B500010EE100A00B200EE100AB8EEC00A84EDD2
:101B60005D0A5FEDF10A68EE200AB0EE600AFEF74A
:101B700089FBF0EE400A00EE106AB8EEC00A60EE93
:101B8000808A5FEDF90A68EE200AB0EE600AFEF77F
:101B9000B5FBF0EE400A00EE105AB8EEC00A40EE77
:101BA000608A29E038010020A036002000000000F3
:101BB0000000E03F50300020CDCCCC3D0000B442CE
:101BC000083400203C0100206632002000008743DA
:101BD00000803B45400100206F12033B480100207C
:101BE0000060EA45440100206F12833A5032002021
:101BF0003001002034010020BDEEE80A10EE100A8A
:101C000000B200EE100AB8EEC00A84ED5E0A00BF12
:101C1000BDEC028B70BD10B52DED048BB0EE408A8B
:101C200018EE100AFFF7ADF941EC190BB0EE490AB6
:101C3000F0EE690A12F078FB00EE100AB8EEC00A66
:101C4000BDEC048B10BD000010B50122102102482C
:101C500003F088FC10BD00000000024010B5002217
:101C60001021024803F07EFC10BD0000000002407D
:101C700010B501221146024803F074FC10BD0000AB
:101C80000004024010B500220121024803F06AFC62
:101C900010BD00000004024010B543781B021BB2C7
:101CA0000478234300EE103AB8EEC01A1C4BD3ED73
:101CB000001A21EE211A81ED001AC3781B021BB213
:101CC0008478234300EE103AB8EEC01A144BD3EDDB
:101CD000001A21EE211A81ED011A43791B021BB271
:101CE0000479234300EE103AB8EEC01A0C4BD3ED42
:101CF000001A21EE211A81ED021A037A1B04C4791D
:101D000043EA04238479234300EE903AB8EE601A44
:101D1000DFED041A21EE211A82ED001A10BD000039
:101D20003402002000401C4210B50446204611F049
:101D30008DF910BD10B50446204610F02BFE10BDE5
:101D40004278120212B203781A4300EE102AF8EE1B
:101D5000C00A144A92ED001A60EE810AC1ED000A31
:101D6000C278120212B283781A4300EE102AF8EEFB
:101D7000C00A0C4A92ED001A60EE810AC1ED010A18
:101D80004279120212B203791A4300EE102AF8EED9
:101D9000C00A044A92ED001A60EE810AC1ED020AFF
:101DA000704700003802002010B5002410F086FCB7
:101DB000044310F01DFD0443204610BD70B50646D7
:101DC0000C46154646F0800000F018F806E0552055
:101DD00000F014F82070641C681EC5B2002DF6D106
:101DE00070BD70B504460D4644F0800000F006F862
:101DF000552000F003F8287070BD000001B582B0D6
:101E00004FF47A70012301AA02A90090024805F05C
:101E100015FB9DF804000EBD680C002010B50246AD
:101E20001378DB00547843EA6410B0F5806F02DB6E
:101E3000A0F5006318B200EE100AF8EEC00AB4EE86
:101E4000001AB3EE070A00EE810A81ED000A10BD08
:101E500070B505460C462846FFF7D0FF2046FFF731
:101E6000CDFF70BDD2ED020A92ED021AB6EE000A65
:101E700000EEC10AD2ED030A92ED031A00EEC10A88
:101E8000D0ED000A20EE200AD2ED010A92ED021AEE
:101E900060EE810A92ED001AD2ED031A41EE610A5A
:101EA00090ED011A00EE810AD2ED010A92ED031ABB
:101EB00060EE810A92ED001AD2ED021A41EE210A7B
:101EC00090ED021A00EE810AF0EE000A20EE200AE0
:101ED00081ED000A92ED010AD2ED020A20EE200AFD
:101EE000D2ED000A92ED031A00EE810AD0ED000A4D
:101EF00060EE200A92ED011AD2ED011AB6EE000A48
:101F000001EE610AD2ED031A92ED032AB0EE401AF7
:101F100001EEC21AD0ED011AB0EE600A01EE210AFC
:101F2000D2ED020A92ED031A60EE810A92ED001AD8
:101F3000D2ED011A41EE610A90ED021A00EE810A1B
:101F4000F0EE000A20EE200A81ED010A92ED010A6E
:101F5000D2ED030A20EE200AD2ED000A92ED021A19
:101F600000EEC10AD0ED000A20EE200AD2ED020AEE
:101F700092ED031A60EE810A92ED001AD2ED011A79
:101F800041EE210A90ED011A00EE810A92ED011A4C
:101F9000D2ED011AF6EE000A41EE610A92ED021A44
:101FA000D2ED021A41EE610A90ED021A00EE810AAA
:101FB000F0EE000A20EE200A81ED020A704700BF11
:101FC000FEE7000007B58AB00A980490002006904A
:101FD0000790082008909DF82C008DF808000AA8AA
:101FE00040798DF809000AA880798DF80A000AA8BE
:101FF000C0798DF80B000AA8007A8DF80C000AA8A9
:10200000407A8DF80D000AA8807A8DF80E000AA893
:10201000C07A8DF80F0001AB02AA04A9024802F0B1
:10202000EAF80DB000BD0000980B002010B5024882
:1020300002F0E3FA10BD0000980B002007B58AB04B
:102040000A980490002006900790082008909DF8B8
:102050002C008DF808000AA840798DF809000AA81C
:1020600080798DF80A000AA8C0798DF80B000AA8BB
:10207000007A8DF80C000AA8407A8DF80D000AA8A5
:10208000807A8DF80E000AA8C07A8DF80F0001AB97
:1020900002AA04A9024802F0AEF80DB000BD00008B
:1020A000C00B002010B5024802F0A7FA10BD0000D6
:1020B000C00B002010B50346042B15D007DC7BB104
:1020C000012B0ED0022B0DD0032B3CD10BE0202B8B
:1020D0000BD0212B1CD0222B33D0232B33D131E03A
:1020E00032E031E030E02FE02EE0C87800068C7856
:1020F00040EA04404C7840EA04200C782043144C19
:10210000206008792071487960718879A0711BE09E
:102110000F48007808700E480088000A48700C4884
:102120000068000C88700A480068000EC8700848F3
:1021300000790871064840794871054880798871AE
:1021400002E001E000E000BF00BF002010BD000081
:102150007C0000200020704710B50022044905488B
:102160000DF0C6FC044903480DF0B4FC002010BD7E
:102170001625002028110020161D002070B50446E9
:102180000D46204612F036FA214604480DF0A2FC16
:1021900002480DF06FFC002070BD000028110020E7
:1021A00010B503460C460021084610BD2DE9F0414C
:1021B00004460D4600260A48D0F8BC72D7F814022F
:1021C00010B10120BDE8F0812A46214604480DF0F7
:1021D0008FFC03480DF024FD06463046F2E7000070
:1021E0002811002010B5044694F8FE0128B94FF4D8
:1021F000FA51532010F07EFB01E010F073FB10BD8C
:1022000070B52DED068B88B004460020069007902F
:1022100001F028F8FE4880ED000A00BF01F022F826
:10222000FB48D0ED000A30EE600AF2EE040AB4EE8C
:10223000E00AF1EE10FA14DD9FEDF60A84ED0C0AC7
:102240009FEDF50A84ED0D0A9FEDF30A84ED0E0A69
:102250009FEDF20A84ED0F0A9FEDF10A84ED090A61
:102260006AE29FEDF00A00F0B9FF9FEDEF0A84EDFE
:102270000F0A9FEDED0A84ED0C0A9FEDEB0A84ED49
:102280000D0A9FEDE90A84ED0E0A002673E1FFF7BF
:10229000E5FC9220FFF7B2FD062206A91220FFF707
:1022A0008DFDFFF7D1FC9DF81900000200B29DF8EA
:1022B000181040EA010500EE105AB8EEC00ADB48DB
:1022C000D0ED000A20EE200A84ED010A9DF81B00E3
:1022D000000200B29DF81A1040EA010500EE105A03
:1022E000B8EEC00AD148D0ED000A20EE200A84EDF5
:1022F000020A9DF81D00000200B29DF81C1040EA81
:10230000010500EE105AB8EEC00AC848D0ED000A28
:1023100020EE200A84ED030AD4ED010A60EEA00A43
:1023200094ED021AD4ED021A41EE210A94ED031A3B
:10233000D4ED031A41EE210AB0EE600AFFF76BFC00
:10234000B0EE408A94ED0F0A30EE080A84ED0F0AD1
:10235000FFF798FC082206A90020FFF72FFDFFF7E2
:1023600087FC9DF818000F2850D19DF81B00000233
:1023700000B29DF81A1040EA010500EE105AB8EEBE
:10238000C00AAB48D0ED000A20EE200A84ED050A11
:1023900094ED0C0AD4ED050A30EE200A84ED0C0A07
:1023A0009DF81D00000200B29DF81C1040EA0105D6
:1023B00000EE105AB8EEC00A9D48D0ED000A20EE9B
:1023C000200A84ED060A94ED0D0AD4ED060A30EEDB
:1023D000200A84ED0D0A9DF81F00000200B29DF84E
:1023E0001E1040EA010500EE105AB8EEC00A9048EF
:1023F000D0ED000A20EE200A84ED070A94ED0E0AC3
:10240000D4ED070A30EE200A84ED0E0A06BBF0EE8A
:10241000488AB0EE489A002017E004F1140101EB5D
:10242000800191ED000A03A901EB800181ED000A12
:1024300004F1140101EB800191ED000A694601EB02
:10244000800181ED000A411CC8B20328E5DB49E0A8
:10245000B4EEE88AF1EE10FA01DDF0EE488AB4EE4F
:10246000C98AF1EE10FA01D2B0EE489A002037E0A6
:1024700004F1140101EB800191ED000A03A901EBC5
:102480008001D1ED000AB4EEE00AF1EE10FA0ADDA7
:1024900004F1140101EB800191ED000A03A901EBA5
:1024A000800181ED000A04F1140101EB800191ED3E
:1024B000000A694601EB8001D1ED000AB4EEE00AA2
:1024C000F1EE10FA0AD204F1140101EB800191ED52
:1024D000000A694601EB800181ED000A411CC8B287
:1024E0000328C5DB38EEC90A524880ED000A0020F7
:1024F00012E003A901EB800191ED000A694601EBAE
:102500008001D1ED000A30EE600A4B4901EB8001F9
:1025100081ED000A411CC8B20328EADB454890ED72
:10252000000AF6EE000AB4EEE00AF1EE10FA1BDC47
:10253000414890ED000ADFED410AB4EEE00AF1EE09
:1025400010FA11DC90ED010ADFED3C0AB4EEE00A6E
:10255000F1EE10FA08DC90ED020ADFED380AB4EE75
:10256000E00AF1EE10FA00DD0AE09FED350A00F016
:1025700035FE701C86B2334800888642FFF687AE6F
:1025800000BFD4ED0F0A2F48008800EE100AB8EE05
:10259000400A80EE801A84ED0F1A002015E004F145
:1025A000300101EB8001D1ED000A2649098800EED7
:1025B000101AB8EE400A80EE801A04F1300101EBE7
:1025C000800181ED001A411CC8B20328E7DBFFF748
:1025D00045FBA220FFF712FC022206A92220FFF7EA
:1025E000EDFBFFF731FB9DF81800C0009DF81910B6
:1025F00040EA6115B5F5806F02DBA5F5006005B214
:1026000000EE105AF8EEC00AB4EE001A1CE000000A
:1026100068020020AC38223BB016CE393F161B4171
:10262000000020420AD7A33B000000003402002033
:10263000380200203C020020E83D00209A99193E13
:102640006F12033A6C020020B3EE070A00EE810A13
:1026500084ED090A3F480088401C00B23D490880CB
:102660003D4890ED000ADFED3D0AB4EEE00AF1EEE0
:1026700010FA3FF7D3AD94ED0F0ADFED390A30EED3
:10268000600A10EE101A0846FEF77BFC21F00041AC
:102690009FED340B53EC102BFEF79EFCFFF4BEAD08
:1026A000324890ED000A5FED1B0AB4EEE00AF1EE4D
:1026B00010FADEDC90ED010A5FED200AB4EEE00ACC
:1026C000F1EE10FAD5DC90ED020A5FED240AB4EECB
:1026D000E00AF1EE10FACCDC94ED0C0A10EE101AC0
:1026E0000846FEF74EFC21F000419FED210B53EC14
:1026F000102BFEF771FCD1D394ED0D0A10EE101AD9
:102700000846FEF73EFC21F000419FED190B53EC0B
:10271000102BFEF761FCC1D394ED0E0A10EE101AD7
:102720000846FEF72EFC21F000419FED110B53EC03
:10273000102BFEF751FCB1D300BF94ED0F0ADFED73
:102740000E0A80EE801A84ED0B1A08B0BDEC068BE1
:1027500070BD0000400200203C020020CDCC4C3F68
:10276000CDCC1C41000000000000E03FE83D00200F
:1027700000000040E17A843FC3F51C41B4EEC10A79
:10278000F1EE10FA0CDD00BF71EE601A70EE611A06
:10279000B0EE610AB4EEC10AF1EE10FAF4DC10E01A
:1027A000B4EEE00AF1EE10FA0BD200BF71EE601A3F
:1027B00071EE801AB0EE610AB4EEE00AF1EE10FAA2
:1027C000F4D380ED000A704710B5024802F07AFB9E
:1027D00010BD00006810002010B5024802F072FB26
:1027E00010BD0000C810002010B5F8480068401C5B
:1027F000F6490860F648C06C0068F649884276D908
:10280000F44854380068F249C96C0968F24A9142A8
:1028100001D1202169E0EE49C96C0968ED4A483AC6
:10282000914201D1202160E0E949C96C0968EA4A76
:102830006032914201D1202157E0E549C96C096815
:10284000E44A1832914201D120214EE0E049C96C9E
:102850000968E14A1832914201D1C91445E0DC49C6
:10286000C96C0968DB4A303A914201D1C9143CE095
:10287000D749C96C0968D84A7832914201D1C91444
:1028800033E0D349C96C0968D24A3032914201D150
:10289000C9142AE0CE49C96C0968CF4A3032914246
:1028A00002D14FF4001120E0C949C96C0968C94A36
:1028B000183A914202D14FF4001116E0C449C96C94
:1028C0000968C54A9032914202D14FF400110CE0E0
:1028D000BF49C96C0968BF4A4832914203D14FF4DD
:1028E000001102E003E04FF00061084079E1B848D0
:1028F000C06C0068B849A831884276D9B5485838C4
:102900000068B349C96C0968B34A914201D12021DA
:1029100069E0AF49C96C0968AE4A483A914201D1B1
:10292000202160E0AA49C96C0968AB4A6032914233
:1029300001D1202157E0A649C96C0968A54A18327F
:10294000914201D120214EE0A149C96C0968A24AF7
:102950001832914201D1C91445E09D49C96C0968FA
:102960009C4A303A914201D1C9143CE09849C96C63
:102970000968994A7832914201D1C91433E09449E7
:10298000C96C0968934A3032914201D1C9142AE0D6
:102990008F49C96C0968904A3032914202D14FF494
:1029A000001120E08A49C96C09688A4A183A9142A4
:1029B00002D14FF4001116E08549C96C0968864AB6
:1029C0009032914202D14FF400110CE08049C96C61
:1029D0000968804A4832914203D14FF4001102E065
:1029E00003E04FF000610840FBE07948C06C0068EC
:1029F00079494831884276D9774810384068744917
:102A0000C96C0968744A914201D1202169E070497A
:102A1000C96C09686F4A483A914201D1202160E0AF
:102A20006B49C96C09686C4A6032914201D120211E
:102A300057E06749C96C0968664A1832914201D16A
:102A400020214EE06249C96C0968634A18329142FC
:102A500001D1C91445E05E49C96C09685D4A303A44
:102A6000914201D1C9143CE05949C96C09685A4ADC
:102A70007832914201D1C91433E05549C96C0968D3
:102A8000544A3032914201D1C9142AE05049C96CEC
:102A90000968514A3032914202D14FF4001120E0CE
:102AA0004B49C96C09684B4A183A914202D14FF41C
:102AB000001116E04649C96C0968474A90329142B4
:102AC00002D14FF400110CE04149C96C0968414A38
:102AD0004832914203D14FF4001102E003E04FF07D
:102AE000006108407DE03C48103800683849C96CF6
:102AF0000968394A914201D1202171E03449C96CF9
:102B00000968344A483A914201D1202168E03049AD
:102B1000C96C0968304A6032914201D120215FE0DE
:102B20002B49C96C09682B4A1832914201D12021E6
:102B300056E02749C96C0968274A1832914201D1E9
:102B4000C9144DE02249C96C0968224A303A9142C1
:102B500001D1C91444E01E49C96C09681E4A783283
:102B6000914201D1C9143BE01949C96C0968194A5D
:102B70003032914201D1C91432E01549C96C09685B
:102B8000154A3032914202D14FF4001128E0104929
:102B9000C96C09680F4A183A914202D14FF40011EA
:102BA0001EE00B49C96C09680B4A9032914202D170
:102BB0004FF4001114E00649C96C0968054A48320F
:102BC00091420BD14FF400110AE000009401002063
:102BD000680C002058640240106002404FF0006111
:102BE0000840002874D0FE48C06C0068FD49884247
:102BF00076D9FB48C06C0068FB49884201D120208F
:102C00006AE0F748C06C0068F6494839884201D14B
:102C1000202061E0F248C06C0068F34960318842CE
:102C200001D1202058E0EE48C06C0068ED49183111
:102C3000884201D120204FE0E948C06C0068EA4991
:102C40001831884201D1C01446E0E548C06C0068E4
:102C5000E4493039884201D1C0143DE0E048C06CFD
:102C60000068E1497831884201D1C01434E0DC4881
:102C7000C06C0068DB493031884201D1C0142BE0C0
:102C8000D748C06C0068D8493031884202D14FF42F
:102C9000001021E0D248C06C0068D249183988423F
:102CA00002D14FF4001017E0CD48C06C0068CE4947
:102CB0009031884202D14FF400100DE0C848C06C3A
:102CC0000068C8494831884204D14FF4001003E03D
:102CD000C9E105E04FF00060C2494C3908606DE180
:102CE000BF48C06C0068C049A831884275D9BC484B
:102CF000C06C0068BC49884201D1202068E0B84817
:102D0000C06C0068B7494839884201D120205FE093
:102D1000B348C06C0068B4496031884201D12020BA
:102D200056E0AF48C06C0068AE491831884201D106
:102D300020204DE0AA48C06C0068AB491831884299
:102D400001D1C01444E0A648C06C0068A5493039E0
:102D5000884201D1C0143BE0A148C06C0068A24980
:102D60007831884201D1C01432E09D48C06C0068BF
:102D70009C493031884201D1C01429E09848C06C88
:102D8000006899493031884202D14FF400101FE0A9
:102D90009348C06C006893491839884202D14FF4B7
:102DA000001015E08E48C06C00688F499031884251
:102DB00002D14FF400100BE08948C06C00688949CB
:102DC0004831884202D14FF4001001E04FF000601A
:102DD000844950390860F1E0FFE78148C06C006821
:102DE00081494831884275D97D48C06C00687E4968
:102DF000884201D1202069E07948C06C0068794997
:102E00004839884201D1202060E07548C06C0068D4
:102E100075496031884201D1202057E07048C06C6C
:102E2000006870491831884201D120204EE06C487A
:102E3000C06C00686C491831884201D1C01445E06B
:102E40006748C06C006867493039884201D1C014B6
:102E50003CE06348C06C006863497831884201D126
:102E6000C01433E05E48C06C00685E49303188426F
:102E700001D1C0142AE05A48C06C00685A49303168
:102E8000884202D14FF4001020E05548C06C006821
:102E900054491839884202D14FF4001016E05048C6
:102EA000C06C006850499031884202D14FF4001044
:102EB0000CE04B48C06C00684A494831884203D155
:102EC0004FF4001002E005E04FF000604649103971
:102ED000C86073E04248C06C00684349884201D131
:102EE000202068E03E48C06C00683E49483988426E
:102EF00001D120205FE03A48C06C00683A49603157
:102F0000884201D1202056E03548C06C0068354920
:102F10001831884201D120204DE03148C06C006852
:102F200031491831884201D1C01444E02C48C06CAA
:102F300000682C493039884201D1C0143BE0284850
:102F4000C06C006828497831884201D1C01432E051
:102F50002348C06C006823493031884201D1C01435
:102F600029E01F48C06C00681F493031884202D1F7
:102F70004FF400101FE01A48C06C00681949183956
:102F8000884202D14FF4001015E01548C06C00686B
:102F900015499031884202D14FF400100BE01048DF
:102FA000C06C00680F494831884202D14FF40010CC
:102FB00001E04FF000600C49103988600B48007840
:102FC00000F00200C0B10948007820F00200074973
:102FD00008700846007840F004000870012207E0FD
:102FE000680C0020586402401060024089010020F3
:102FF00011461D4802F0B6FA1C48007800F00200A5
:1030000078B11A48007820F0020018490870084684
:10301000007840F00400087001221021144802F0EA
:10302000A1FA1448007800F0020078B11148007845
:1030300020F002000F4908700846007840F00400B4
:103040000870012210210A4802F08CFA0FF014FDDA
:103050000948007800F0040028B10848006840F0F2
:1030600001000649086010BD000402408A010020EA
:10307000000002408B01002089010020103C01402B
:1030800010B5024801F01EFF10BD0000200D002009
:1030900010B5024801F016FF10BD00000810002016
:1030A0000146087810381823B0FBF3F20848805C1A
:1030B000C865032A05D908686FF30900001D8865F3
:1030C00003E008686FF309008865886D70470000A9
:1030D00050580108014600208A6A8B69CBB932B189
:1030E000012A0DD0022A03D0032A10D10EE000BF1E
:1030F000CB6A03F08073B3F1807F00D1012007E039
:10310000CB6AB3F1C07F00D1012001E000E000BF35
:1031100034E08B69B3F5005F1AD132B1012A07D0D0
:10312000022A03D0032A11D10AE000BF01200EE0D9
:10313000CB6A03F08073B3F1807F00D1012006E0F9
:10314000CB6AB3F1C07F00D1012000E000BF15E0E1
:1031500032B1012A05D0022A04D0032A0CD103E09F
:1031600000BF00BF012008E0CB6A03F08073B3F119
:10317000807F00D1012000E000BF00BF704730B564
:103180000468246824F4802405682C600468636063
:103190008468402C04D10468A2600468E16003E004
:1031A0000468A1600468E26030BD000008B508480A
:1031B00040680090074900980968884204D2064890
:1031C0000068401C0449086002490098086008BD76
:1031D000001000E0F8000020F40000200C494868CE
:1031E000F0EE400A00BF0A494968091A01EE101AB8
:1031F000F8EE411A074991ED001AB8EE411A20EE97
:10320000811AF4EEC11AF1EE10FAECD37047000007
:10321000001000E0E800002010B52DED028B82B018
:1032200004460E484068019020680199081A00EE93
:10323000100AF8EE400A0A4890ED000AB8EE400A7B
:1032400080EE801AB0EE418A01982060FFF7AEFF51
:10325000B0EE480A02B0BDEC028B10BD001000E0D9
:10326000E800002010B52DED028B00F059F80F4852
:1032700090ED000AB8EE400A808800EE900AF8EE61
:10328000600A9FED0B1A00EE810A0848C08800EE24
:10329000900AF8EE600A9FED071A00EE810AB0EE80
:1032A000408AB0EE480ABDEC028B10BDE000002061
:1032B0006F12833ABD3786351249096841F0807133
:1032C000104A11600021104A51601146096841F00E
:1032D000010111600D4941430D4A11601146096811
:1032E0004FF47A72B1FBF2F10A4A11600849096899
:1032F000064AB1FBF2F1084A11600021074A116049
:1033000070470000FCED00E0001000E040420F00BC
:10331000E8000020EC000020F0000020F400002075
:1033200038B5294840680090FFF740FF27480068FB
:103330004FF0FF31A0FB01310098181841F1000156
:10334000234A03C2234800232149026803C9FDF729
:10335000DBFC214A03C220480CC81E480068002438
:10336000A2FB001503FB005002FB04021848D0E941
:103370000030591A60EB0200184AC2E900101648E2
:10338000006817490860174800231449026803C9F8
:10339000FDF7BAFC124988800846808811490968FF
:1033A00041430E48D0E90030591A60F100000E4A3E
:1033B000C2E900100D4800230B49026803C9FDF75C
:1033C000A3FC0749C88038BD001000E0F4000020CD
:1033D00000010020E800002008010020100100206A
:1033E000E0000020EC00002018010020F000002088
:1033F000704710B5012001F0ADFF10BD10B50820D9
:1034000001F0A8FF10BD10B5102001F0A3FF10BD02
:1034100010B5202001F09EFF10BDD2ED020A92ED02
:10342000021AB6EE000A00EEC10AD2ED030A92EDCE
:10343000031A00EEC10AD0ED000A20EE200AD2EDF8
:10344000010A92ED021A60EE810A92ED001AD2EDA5
:10345000031A41EE210A90ED011A00EE810AD2ED25
:10346000010A92ED031A60EE810A92ED001AD2ED84
:10347000021A41EE610A90ED021A00EE810AF0EEA6
:10348000000A20EE200A81ED000A92ED010AD2ED39
:10349000020A20EE200AD2ED000A92ED031A00EE95
:1034A000C10AD0ED000A60EE200A92ED011AD2EDB9
:1034B000011AB6EE000A01EE610AD2ED031A92ED8E
:1034C000032AB0EE401A01EEC21AD0ED011AB0EE96
:1034D000600A01EE210AD2ED020A92ED031A60EEB3
:1034E000810A92ED001AD2ED011A41EE210A90ED07
:1034F000021A00EE810AF0EE000A20EE200A81EDA9
:10350000010A92ED010AD2ED030A20EE200AD2ED63
:10351000000A92ED021A00EE810AD0ED000A20EEB8
:10352000200AD2ED020A92ED031A60EE810A92EDB2
:10353000001AD2ED011A41EE610A90ED011A00EE77
:10354000810A92ED011AD2ED011AF6EE000A41EE5F
:10355000610A92ED021AD2ED021A41EE610A90ED73
:10356000021A00EE810AF0EE000A20EE200A81ED38
:10357000020A70477047B5EEC00AF1EE10FA05DB9B
:10358000FDEEC00A10EE900A00B27047B5EEC00A18
:10359000F1EE10FA10D2B5EEC00AF1EE10FA02DD2B
:1035A000F0EE400A01E0F1EE400AFDEEE00A10EE16
:1035B000900A404200B2E8E700BFE6E708B58DEDAB
:1035C000000A009901700099090A41700099090CDC
:1035D00081700099090EC17008BD000010B52DED75
:1035E000048B0446B0EE408AF0EE608AB0EE419A59
:1035F00024B99FED350ABDEC048B10BD84ED048A1F
:10360000C4ED038A94ED060A84ED070A94ED050AD9
:1036100084ED060A38EEC80A84ED050AD4ED050AE1
:10362000B0EE600A9FED291ADFED290A0FF054FC75
:1036300084ED050A94ED000AD4ED050A20EE200A77
:1036400084ED0D0A94ED0E0AD4ED010A94ED051AED
:1036500000EE810A84ED0E0A94ED090A84ED0A0A4F
:1036600094ED080A84ED090A94ED050AD4ED060AE2
:1036700030EE600A84ED080A94ED020AD4ED080ADF
:1036800020EE200A84ED0F0AD4ED0C0AB0EE600A99
:1036900004F138000EF00CFF94ED0D0AD4ED0E0A83
:1036A00030EE200AD4ED0F0A30EE200A84ED100A25
:1036B000D4ED0B0AB0EE600A04F140000EF0F8FE03
:1036C00094ED100A97E7000000000000000034436A
:1036D000000034C310B50446344804F0B5FD04F2CC
:1036E000811000F039F9204600F026F904F10A00B3
:1036F00000F050F904F1D40000F002F904F1D80010
:1037000000F00CF904F58E7000F0D8F9284800F0AC
:10371000AFF904F5FF7000F079F994ED470AB5EEC2
:10372000C00AF1EE10FA0CDD94ED470ADFED210A34
:10373000B4EEE00AF1EE10FA03D800201E4908703A
:1037400014E094ED470ADFED1B0AB4EEE00AF1EE57
:1037500010FA0BDD94ED470ADFED180AB4EEE00A2B
:10376000F1EE10FA02D801201349087004F1C000EC
:1037700000F0AAF804F1BC0000F07CF804F59070A9
:1037800000F086F804F5927000F0ACF804F5A27031
:1037900000F062F804F5A47000F088F8084800F022
:1037A00055F904F1980000F097F910BD300F002092
:1037B0006632002000003443380100200000B4438A
:1037C000503200200146054802680A6042684A609B
:1037D000008908810248006870470000742D0020AD
:1037E000B42D00200146054802680A6042684A601C
:1037F0000089088102484068704700007E2D002043
:10380000B42D002010B5044604F1680000F0A4F8BF
:103810000E4800F01BF92046FFF7D4FF04F10A0020
:10382000FFF7E0FF04F1140000F0A4F804F1A80091
:1038300000F0F4F804F1A90000F012F9044800F0D7
:103840004BF9044800F014F910BD0000183A0020AC
:10385000303A0020543A00200146044890ED000A16
:1038600081ED000A0248006870470000BC37002064
:10387000540100200146044890ED000A81ED000A41
:103880000248006870470000A4370020540100205F
:103890000146044890ED000A81ED000A02480068E4
:1038A00070470000B0370020540100200146044852
:1038B00090ED010A81ED000A02480068704700009F
:1038C000BC370020540100200146044890ED010A55
:1038D00081ED000A0248006870470000A43700200C
:1038E000540100200146044890ED010A81ED000AD0
:1038F0000248006870470000B037002054010020E3
:103900000146044890ED000A81ED000A0248006873
:1039100070470000A82D0020B42D00200146044867
:1039200090ED010A81ED000A0248406870470000EE
:10393000A82D0020B42D00200146054802680A6029
:1039400042684A60008908810248006870470000A8
:10395000602D0020B42D002010B504461622034926
:103960002046FDF702FA0248006810BD0C3900201D
:10397000C00100200146054802680A6042684A60AA
:10398000008908810248806870470000882D002067
:10399000B42D00200146054802680A6042684A606A
:1039A0000089088102484068704700006A2D0020A5
:1039B000B42D002030B5034613B94FF6FF7030BD6B
:1039C00009E013F8014B82EA0400C0B2054D35F856
:1039D000100080EA2222081EA1F10101F1D1104657
:1039E000EDE70000AE59010830B5034605E013F8D5
:1039F000010B80EA02040448025D081EA1F10101E6
:103A0000F5D1104630BD0000AD580108024991F8CB
:103A10008010017070470000E4370020024991F8DF
:103A2000C2110170704700005030002010B50548E9
:103A3000FFF720FF0348001DFFF746FF024800F094
:103A400045F810BD7C3D00203002002010B5044632
:103A5000152202492046FDF788F910BDD02D00201F
:103A6000024991F8F01101707047000050300020B9
:103A700010B504464FF4D17202492046FDF775F99E
:103A800010BD0000E62D002070B50A480468001D36
:103A90000568001D0668344454B1082206492046D2
:103AA00005F055FF042204491031284605F04FFF68
:103AB00070BD0000107AFF1F62000020024991EDE6
:103AC000000A80ED000A7047A80000200149497BE8
:103AD00001707047942D002010B50446242202493D
:103AE0002046FDF742F910BD583D00203EB5044682
:103AF00012206B49488032206A4948800F206A4969
:103B000048800A2069494880002084F83C0084F8F5
:103B100080019FED670A674880ED000A9FED660A05
:103B200080ED010AB2EE0E0A80ED020A9FED630AF3
:103B300080ED0B0A9FED620A80ED0C0AB2EE0E0AD0
:103B400080ED110A9FED5F0A80ED120AB0EE000AC7
:103B500080ED130A9FED5C0A80ED1C0AB3EE040AA7
:103B600080ED1D0AB2EE0E0A584880ED010A9FED65
:103B7000580A80ED020A9FED570A80ED030A9FED77
:103B8000560A80ED050A9FED550A80ED060ABAEE49
:103B9000040A80ED170A9FED520A80ED180A9FED86
:103BA000510A80ED190AB7EE000A80ED1A0A9FED5E
:103BB0004E0A80ED1B0A9FED490A80ED1C0A9FED1D
:103BC0004B0A8DED000A9FED3F0A8DED010A9FED36
:103BD000480A8DED020AF3EE0E0A9FED3F0A6A468F
:103BE0000021444807F086FE9FED430A8DED000A50
:103BF0009FED340A8DED010AB2EE0E0A8DED020A38
:103C0000DFED3E0A9FED3E0A6A46002139485830F2
:103C100007F070FE9FED3B0A8DED000A9FED290A2B
:103C20008DED010A9FED340A8DED020AB7EE000A10
:103C3000354880ED1A0ADFED230A9FED310A6A4606
:103C40000021583007F056FE9FED300A8DED000A36
:103C50009FED1C0A8DED010A9FED2D0A8DED020AE4
:103C6000DFED180A9FED1C0A6A460021264807F07E
:103C700041FE9FED280A8DED000A9FED270A8DED8C
:103C8000010A9FED260A8DED020AF3EE040A9FED6C
:103C9000240A6A460021234807F02CFE3EBD00009E
:103CA000F836002008370020183700202837002079
:103CB0000000A042083400206666663F000080468F
:103CC000000048420000000000409C4540350020B4
:103CD0009A99193E0000FA4400606A460000C84202
:103CE000CDCCCCBD0000FAC400004843000048C35E
:103CF000000048C29034002000007A4300441C4673
:103D00000050C34600004844F0350020008059C4EC
:103D1000000016C300009642CDCCCC3D0080BB44D1
:103D20000000FA45A036002090F8421039B190F812
:103D3000401021B990ED350A80ED380A18E090F86E
:103D40004210012908D090F84010012904D190EDCB
:103D50002F0A80ED320A0BE090F84210022907D0BA
:103D600090F84010022903D190ED2F0A80ED320A1D
:103D70004321095C39B14121095C21B990ED360A32
:103D800080ED390A18E04321095C012908D041215E
:103D9000095C012904D190ED300A80ED330A0BE073
:103DA0004321095C022907D04121095C022903D182
:103DB00090ED300A80ED330A90F83D1061B990F82B
:103DC0003C10012908D190ED300A104981ED010A1B
:103DD00090ED2F0A81ED000A90F83D10012913D1D2
:103DE00090F83C1001290FD090ED350A80ED380A8B
:103DF00090ED360A80ED390A90ED2F0A80ED320AF7
:103E000090ED300A80ED330A7047000098370020AB
:103E100010F83C1F4170017981713C3841210A5CE6
:103E200043210A5440F28B11095C012906D03A491A
:103E300091F8421011B190F8FE1149B9012180F8B2
:103E40003C10002180F84010002241210A5462E019
:103E500040F28B11095C032905D03049C979C1F3BF
:103E60000111012921D1022180F83C10012180F8A3
:103E70004010012241210A54294991F89A1101F078
:103E80001001002909DC4FF4C671095C022904D035
:103E9000244991F8F211012903D1022180F83E1042
:103EA00039E0012180F83E1035E040F28B11095CC9
:103EB00002290FD04FF4CA71095C00290ADC1A49A3
:103EC00091F99911002905DC1449C979C1F301114F
:103ED000022920D1032180F83C10022180F84010F3
:103EE000022241210A540E4991F89A1101F0100161
:103EF000002909DC4FF4C671095C022904D0094984
:103F000091F8F211012903D1022180F83E1002E05C
:103F1000012180F83E107047780F002050320020B9
:103F20006632002050300020E62D002038B50246D1
:103F30000020009000BF92F83C00012801D102202F
:103F400038BD012082F83C0000BF0868092816D956
:103F50001068C0680C780A3C04EB44050724AC40A8
:103F6000A0431468E0600C780A3C04EB44048868C1
:103F7000A0401468E46820431468E06013E010680F
:103F800000690C7804EB44050724AC40A043146896
:103F900020610C7804EB44048868A040146824690C
:103FA0002043146820614868072817D21068406BC6
:103FB0000C79641E04EB84051F24AC40A0431468F4
:103FC0006063088880B20C79641E04EB8404A0400E
:103FD0001468646B20431468606331E048680D28FE
:103FE00017D21068006B0C79E41F04EB84051F24C2
:103FF000AC40A04314682063088880B20C79E41FA9
:1040000004EB8404A0401468246B204314682063EC
:1040100016E01068C06A0C790D3C04EB84051F247F
:10402000AC40A0431468E062088880B20C790D3C73
:1040300004EB8404A0401468E46A20431468E0623E
:10404000194B1A4C1068A04206D10868122803D1F7
:10405000586840F480005860144C1068A0421CD18D
:104060000868102802D00868112816D1586840F452
:1040700000005860086810280FD10D4800680D4CEA
:10408000B0FBF4F000EB80004000009002E00098EC
:10409000401E009000980028F9D100BF002082F84F
:1040A0003C0000BF00BF4BE700230140002001405F
:1040B000A400002040420F0070B5044600250CB952
:1040C000012070BD1549A06A884200D000BF206C55
:1040D00030B9204600F024F80020606484F83C00E9
:1040E000206C00F0100088B9206C20F4885040F05B
:1040F000020020642046FDF795F800206064206CE3
:1041000020F0020040F00100206400E0012500BF23
:10411000002084F83C0000BF2846D2E70100000FD1
:1041200010B586B00446142101A8FCF737FE2349D8
:10413000206888420FD100BF00200090204800680E
:1041400040F480701E4908600846006800F48070E2
:10415000009000BF2FE01B49206888422BD100BF90
:10416000002000901648006840F480601449086000
:104170000846006800F48060009000BF00BF00BFE8
:10418000002000900E481438006840F020000C49D0
:10419000143908600846006800F02000009000BF55
:1041A00000BF08150190032002900020039001A990
:1041B000054801F0DDF806B010BD00000020014008
:1041C00044380240002201400014024010B502466B
:1041D00092F82030012B01D0022B06D110684069E3
:1041E000084314686061002010BD506A40F48020CC
:1041F00050620120F8E7F0B504460D461E4694F8DB
:10420000207020688368A86800B900E000BF012F13
:1042100001D0022F7DD103F0806030B903F000603F
:1042200018B903F0805000287ED0C3F3016101204B
:1042300088403060A86860B9B5F800C0E86840EA16
:104240004C5C206800F5C07000EB0110C0F800C0A5
:104250000FE0D5E901C040EACC00D5F80CC040EA37
:104260000C00D4F800C00CF5C07C0CEB011CCCF8A1
:104270000000D5F810C0206800F5C07000EB0110F8
:10428000C0F804C0287D01280ED1206800F5C07058
:1042900000EB0110406840F4807C206800F5C0709D
:1042A00000EB0110C0F804C0D079000692F806C0F7
:1042B00040EA0C4092F805C040EA0C2092F804C095
:1042C00040EA0C00D4F800C00CF5C07C0CEB011CDB
:1042D000CCF80C00D078000692F802C040EA0C40FE
:1042E00092F801C040EA0C2092F800C040EA0C00AD
:1042F000D4F800C00CF5C07C0CEB011CCCF8080015
:10430000206800F5C07000EB0110006840F0010C5F
:1043100001E00FE008E0206800F5C07000EB01103C
:10432000C0F800C00020F0BD606A40F40010606278
:104330000120F8E7606A40F4802060620120F2E723
:10434000F0B504460A46216894F82050012D01D0AA
:10435000022D7ED1424901F50071086840F001004C
:104360000860086820F47C5008600868566A40EAD3
:1043700006200860107D00F01F06012000FA06F3F9
:10438000C8699843C861A1F50071D069C8B9D1F86E
:104390000C029843C1F80C02908880B2968940EADA
:1043A000064601F51070576940F83760108880B2F2
:1043B000168940EA064601F51070576900EBC70000
:1043C0004660D069012819D1D1F80C021843C1F810
:1043D0000C02908880B2168840EA064601F51070FB
:1043E000576940F83760908980B2168940EA0646DE
:1043F00001F51070576900EBC7004660906928B955
:10440000D1F804029843C1F8040204E0D1F8040290
:104410001843C1F80402106928B9D1F8140298436E
:10442000C1F8140204E0D1F814021843C1F81402D0
:10443000106A012804D1D1F81C021843C1F81C02EB
:10444000D1F8000220F00100C1F800020020F0BD08
:10445000FFE7606A40F4802060620120F7E7000017
:1044600000640040704770B5044694F82050012D58
:1044700001D0022D7DD151B92068C06800F0030041
:1044800080B9606A40F400106062012070BD20684D
:10449000006900F0030028B9606A40F4001060620F
:1044A0000120F3E7206800F5D87000EB01100068E8
:1044B00000F004009060906840B9206800F5D87062
:1044C00000EB01100068400D106007E0206800F567
:1044D000D87000EB01100068C0085060206800F53B
:1044E000D87000EB0110006800F00200D060206876
:1044F00000F5D87000EB0110406800F00F000828AC
:1045000002D30820106108E0206800F5D87000EBA5
:104510000110406800F00F001061206800F5D870AD
:1045200000EB0110406800F47F40000A90612068B1
:1045300000F5D87000EB01104068000C5061206855
:1045400000F5D87000EB011080681870206800F545
:10455000D87000EB0110806800F47F40000A5870AA
:10456000206800F5D87000EB0110806800F47F002F
:1045700000E03CE0000C9870206800F5D87000EB7B
:1045800001108068000ED870206800F5D87000EB2C
:104590000110C0681871206800F5D87000EB011098
:1045A000C06800F47F40000A5871206800F5D87098
:1045B00000EB0110C06800F47F00000C98712068C7
:1045C00000F5D87000EB0110C068000ED87131B949
:1045D0002068C06840F020002668F06005E0206890
:1045E000006940F020002668306100204EE7606AD4
:1045F00040F480206062012048E72DE9F05F044626
:104600000025206846692068D0F8049020688768F3
:104610002068D0F80CA02068D0F810B02068D0F83E
:10462000188006F00100002855D007F00100C0B145
:1046300001202168886007F0020018B1204600F0D0
:104640003AFC0EE007F0040010B145F4006508E004
:1046500007F0080010B145F4805502E0204600F054
:1046600029FC07F48070C8B14FF48070216888601D
:1046700007F4007018B1204600F01FFC0EE007F4AC
:10468000806010B145F4005508E007F4006010B1F7
:1046900045F4804502E0204600F00EFC07F480302F
:1046A000C8B14FF480302168886007F4003018B139
:1046B000204600F004FC0EE007F4802010B145F421
:1046C000004508E007F4002010B145F4803502E011
:1046D000204600F0F3FB06F0080038B10AF01000A5
:1046E00020B145F4007510202168C86006F0040070
:1046F00040B10AF0080028B108202168C8602046AF
:1047000000F00CFA06F0020038B12068C06800F032
:10471000030010B1204600F003FA06F0400038B163
:104720000BF0100020B145F480651020216808616D
:1047300006F0200040B10BF0080028B108202168E5
:104740000861204600F084FB06F0100038B12068B4
:10475000006900F0030010B1204600F07AFB06F477
:10476000003040B109F0100028B1102021684860E5
:10477000204600F06FFB06F4803040B109F00800DD
:1047800028B1082021684860204600F099FB06F413
:10479000004088B309F0040078B306F4807020B1BB
:1047A00008F0010008B145F0010506F4007020B1E1
:1047B00008F0020008B145F0020506F4806020B15F
:1047C00008F0040008B145F0040506F40060A0B14B
:1047D00008F0700088B108F07000402817D006DC9F
:1047E00010280BD020280CD0302819D10CE05028EC
:1047F00010D0602814D110E01DE019E045F0080544
:104800000FE045F010050CE045F0200509E045F00B
:10481000400506E045F0800503E045F4807500E0C2
:1048200000BF00BF2068806920F0700021688861A7
:104830000420216848602DB1606A284360622046E8
:10484000FFF710FEBDE8F09F70B504460CB90120DB
:1048500070BD94F8200010B9204600F0AFF8206831
:10486000006840F001002168086000F081FE054604
:104870000DE000F07DFE401B0A2808D9606A40F474
:1048800000306062052084F820000120E0E7206805
:10489000406800F001000028EBD02068006820F09C
:1048A00002002168086000F063FE05460DE000F09C
:1048B0005FFE401B0A2808D9606A40F4003060623D
:1048C000052084F820000120C2E72068406800F03D
:1048D00002000028EBD1207E012806D12068006864
:1048E00040F080002168086005E02068006820F042
:1048F000800021680860607E012806D12068006879
:1049000040F040002168086005E02068006820F061
:10491000400021680860A07E012806D12068006858
:1049200040F020002168086005E02068006820F061
:10493000200021680860E07E012806D12068006818
:1049400020F010002168086005E02068006840F051
:10495000100021680860207F012806D120680068C7
:1049600040F008002168086005E02068006820F039
:10497000080021680860607F012806D1206800686F
:1049800040F004002168086005E02068006820F01D
:10499000040021680860D4E9020108432169084342
:1049A000616908436168491E08432168C8610020A5
:1049B0006062012084F82000002049E710B586B02D
:1049C0000446142101A8FCF7E9F94E492068884201
:1049D00041D14D480068401C4B49086008460068BA
:1049E00001280FD100BF002000904848006840F027
:1049F0000070464908600846006800F000700090AA
:104A000000BF00BF00BF0020009040481038006881
:104A100040F008003D49103908600846006800F081
:104A20000800009000BF00BF032001900220029008
:104A300000200390032004900920059001A9344828
:104A400000F096FC00220621142000F0ADFF142097
:104A500000F096FF54E02F492068884250D100BFF3
:104A6000002000902948006840F0806027490860D5
:104A70000846006800F08060009000BF00BF224838
:104A80000068401C204908600846006801280FD1D2
:104A900000BF002000901D48006840F000701B49D6
:104AA00008600846006800F00070009000BF00BF7A
:104AB00000BF0020009015481038006840F0020048
:104AC0001249103908600846006800F002000090A2
:104AD00000BF00BF602001900220029000200390E0
:104AE000032004900920059001A90B4800F040FC28
:104AF00000220621402000F057FF402000F040FF38
:104B000006B010BD0064004028000020403802407C
:104B1000000C0240006800400004024070470000A2
:104B200010B58AB00446B5480068401CB349086017
:104B3000B348844277D101AB03AA0021FFF793FC6D
:104B4000002846D1AF480068401CAE490860AE4915
:104B5000039808600398B0F5027F3BD110F048FC41
:104B6000AA4908609DF805009DF8041040EA01205C
:104B700000B2A74908809DF807009DF8061040EA9A
:104B8000012000B2A24948809DF809009DF8081054
:104B900040EA012000B29E4988809DF80A0040B298
:104BA00088710846B0F9000000EE900AF8EEE00ABD
:104BB000B0EE600A9FED973ADFED972A9FED972AB6
:104BC000DFED971A9FED951ADFED960A964809F0EA
:104BD000BDFD11E140F201210398884224D110F07B
:104BE00007FC8A4908609DF805009DF8041040EA1A
:104BF000012000B28D4908809DF807009DF806103D
:104C000040EA012000B2894948809DF809009DF8DA
:104C1000081040EA012000B2844988809DF80A000B
:104C200040B28871E8E04EE040F2022103988842E9
:104C300024D110F0DDFB754948609DF805009DF812
:104C4000041040EA012000B2784948819DF807002D
:104C50009DF8061040EA012001B2744881819DF858
:104C600009009DF8081040EA012001B26F48C18197
:104C70009DF80A0041B26D480174BDE040F2032185
:104C800003988842A5D19DF805009DF8041040EADC
:104C9000012000B2664908809DF807009DF80610C3
:104CA00040EA012000B2624948809DF809009DF861
:104CB000081040EA012000B25D4988809DF80A0092
:104CC00040B2887198E05B48844267D101AB03AA87
:104CD0000021FFF7C8FB002860D14B49039808600A
:104CE00040F205310398884259D110F081FB4749C1
:104CF00048609DF805009DF8041040EA012000B2CC
:104D0000434948819DF807009DF8061040EA0120BC
:104D100001B23F4881819DF809009DF8081040EAE2
:104D2000012001B23A48C1819DF80A0041B23848D9
:104D300001749DF80B00404948733548B0F90A00EA
:104D400000EE900AF8EEE00AB0EE600A9FED313A0C
:104D5000DFED3A2A9FED312ADFED311A9FED2F1A50
:104D6000DFED300A3048001D09F0F0FC2848B0F9AA
:104D70000A0000EE900AF8EEE00AB0EE600A9FED3D
:104D8000253ADFED2F2A9FED252ADFED2E1A9FED24
:104D9000241ADFED220A2C4809F0D8FC2CE040F25E
:104DA00003310398884227D128480068401C2749CE
:104DB00008601549039808609DF805009DF80410E7
:104DC00040EA01201C49C8809DF807009DF80610A4
:104DD00040EA0120184908809DF809009DF8081054
:104DE00040EA0120144908729DF80B009DF80A1052
:104DF00040EA0120104988800AB010BDC40000209C
:104E0000980B0020B0000020B8000020B42D002036
:104E1000602D002000F8FF4500C0DA4500000000CA
:104E200000003443000034C3A82D0020742D00205E
:104E3000882D0020C00B0020942D002000806A44A3
:104E400000E0F6440000B443A8000020C8000020A1
:104E500070477047704770B5044694F820000128E9
:104E600022D1022084F820002068006820F0010090
:104E70002168086000F07CFB05460DE000F078FB3F
:104E8000401B0A2808D9606A40F40030606205209F
:104E900084F82000012070BD2068406800F0010007
:104EA0000028EBD16062F6E7606A40F4002060629F
:104EB0000120F0E7704770477047704770477047B0
:104EC00070470000F8B50446002000908C48006848
:104ED0004FF41651B0FBF1F7A56D2E6894F85C10F5
:104EE00008208840304098B12068006800F0040035
:104EF00070B12068006820F004002168086094F810
:104F00005C1008208840A860606D40F0010060657A
:104F100094F85C1001208840304068B120684069F6
:104F200000F0800040B194F85C1001208840A86037
:104F3000606D40F00200606594F85C1004208840C9
:104F4000304068B12068006800F0020040B194F879
:104F50005C1004208840A860606D40F0040060652B
:104F600094F85C1010208840304078B320680068C6
:104F700000F0080050B394F85C1010208840A8603E
:104F80002068006800F4802080B12068006800F488
:104F9000002028B9206CC8B12046216C884715E054
:104FA000A06C98B12046A16C88470FE0206800688B
:104FB00000F4807028B92068006820F0080021689B
:104FC0000860206C10B12046216C884794F85C1072
:104FD000202088403040002865D02068006800F01C
:104FE000100000285FD094F85C1020208840A86052
:104FF00094F83500052828D12068006820F01600B4
:10500000216808602068406920F0800021684861BC
:10501000206C08B9A06C28B12068006820F0080056
:105020002168086094F85C103F208840A860012047
:1050300084F8350000BF002084F8340000BF206DE4
:1050400010B12046216D8847F8BD2068006800F443
:10505000802080B12068006800F4002028B9606CCE
:1050600010B12046616C88471DE0E06BD8B1204646
:10507000E16B884717E02068006800F4807068B929
:105080002068006820F0100021680860012084F882
:10509000350000BF002084F8340000BFE06B10B181
:1050A0002046E16B8847606D38B3606D00F0010009
:1050B000F0B1052084F835002068006820F0010078
:1050C0002168086000BF0098401C0090B84200D9D9
:1050D00005E02068006800F001000028F3D100BF5F
:1050E000012084F8350000BF002084F8340000BFA0
:1050F000E06C10B12046E16C884700BFA4E70000D7
:10510000A40000202DE9F0410446002500F030FA0B
:10511000074614B90120BDE8F081606A00B100BF04
:10512000022084F8350000BF002084F8340000BF5E
:105130002068006820F00100216808600AE000F0A3
:1051400017FAC01B052805D920206065032084F8C4
:105150003500E0E72068006800F001000028EED18B
:105160002068056821480540D4E901010843E16849
:1051700008432169084361690843A1690843E1695B
:105180000843216A08430543606A042803D1D4E92F
:105190000B0108430543206805602068456925F038
:1051A0000705606A0543606A04280DD1A06A0543BB
:1051B000E06A48B12046FDF78DFF28B140206065C8
:1051C000012084F83500A6E7206845612046FDF7F8
:1051D00067FF064694F85C103F208840B0600020CE
:1051E0006065012084F83500002094E73F8010F0CE
:1051F0002DE9F04704460D4616461F464FF00008BD
:10520000D4F8589000BF94F83400012802D102204D
:10521000BDE8F087012084F8340000BF94F8350021
:10522000012825D1022084F83500002060653B4626
:10523000324629462046FDF7A2FF94F85C103F2035
:105240008840C9F808002068006840F0160021680E
:105250000860206C28B12068006840F008002168D0
:1052600008602068006840F001002168086006E0DE
:1052700000BF002084F8340000BF4FF00208404611
:10528000C6E7000070B5044600F072F906462546F0
:10529000681C10B104480078054400BF00F068F9AC
:1052A000801BA842FAD370BDA000002010B50446B0
:1052B000102C11D11F48007840F001001D490870E2
:1052C0001D48007840F001001B4908701B48007819
:1052D00070B30DF0D1FB2BE0202C0BD118480078D7
:1052E00040F00100164908701448007800B30DF032
:1052F000C3FB1DE0082C06D11248007840F00100E5
:105300001049087014E0012C12D110F063F8012844
:105310000ED00D490D4800680FF064FB0A48006884
:1053200030B120070A490860BFF34F8FBFF36F8F7A
:1053300010BD00008A0100208B0100208D0100209B
:10534000890100208C010020A001002064010020C0
:1053500004ED00E010B5044604480068204020B188
:10536000024804602046FFF7A1FF10BD143C014035
:10537000F8B502460B460025002400200021D6E0A7
:10538000012606FA01F51E6806EA0504AC4274D14E
:105390001E7906F00306012E04D01E7906F00306DE
:1053A000022E13D190684F000326BE40B0434F0039
:1053B000DE68BE4030439060506801268E40B043A6
:1053C0001E79C6F300168E40304350601E7906F0F9
:1053D0000306032E09D0D0684F000326BE40B04319
:1053E0004F009E68BE403043D0601E7906F0030631
:1053F000022E13D1CF0802F1200656F827004E07DF
:10540000F70E0F26BE40B0434F07FF0E1E69BE4089
:105410003043CF0802F1200646F8270010684F00FD
:105420000326BE40B0431E7906F003064F00BE407F
:10543000304310605E6806F44036002E76D000BF20
:10544000002600963C4E366846F480463A4F3E6051
:105450003E46366806F48046009600BF00BF374ED1
:105460008F0856F827008E07370F0F26BE40B0432F
:10547000334EB24202D1002624E057E0314EB24210
:1054800001D101261EE0304EB24201D1022619E0C0
:105490002E4EB24201D1032614E02D4EB24201D16C
:1054A00004260FE02B4EB24201D105260AE02A4E17
:1054B000B24201D1062605E0284EB24201D10726AC
:1054C00000E008268F073F0FBE4030431B4E8F0879
:1054D00046F82700224E3068A0435E6806F4801626
:1054E00006B120431E4E3060361D3068A0435E6812
:1054F00006F4001606B12043194E361D3060184ED2
:10550000361F3068A0435E6806F4003606B12043BB
:10551000134E361F3060361F3068A0435E6806F4B5
:10552000803606B120430E4E083E3060491C1029DB
:10553000FFF426AFF8BD00004438024008380140AF
:10554000000002400004024000080240000C02403B
:10555000001002400014024000180240001C0240EB
:10556000083C01400AB1816101E00B04836170478E
:1055700001480068704700009800002070B504469C
:105580000CB9012070BD94F83D0028B9002084F8C2
:105590003C00204600F0DAF8242084F83D00206822
:1055A000006820F00100216808602068006840F46D
:1055B0000040216808602068006820F400402168ED
:1055C000086001F0CFFA05465C496068884206D859
:1055D0005B48854201D2012007E0002005E05948E0
:1055E000854201D2012000E00020012800D1C9E756
:1055F0005548B5FBF0F62068406820F03F00304386
:10560000216848604D496068884201D8701C07E0F5
:105610004FF4967070434FF47A71B0FBF1F0401C78
:105620002168096A21F03F01084321680862434963
:105630006068884214D8681E61684900B0FBF1F0C8
:10564000401CC0F30B00042801D204203DE0681E7A
:1056500061684900B0FBF1F0401CC0F30B0034E07E
:10566000A06838B9681E616801EB4101B0FBF1F038
:10567000401C0AE0681E616801EBC10202EB0111E7
:10568000B0FBF1F0401C40F48040C0F30B0008B9BF
:1056900001201AE0A06848B9681E616801EB410169
:1056A000B0FBF1F0401CC0F30B000CE0681E616819
:1056B00001EBC10202EB0111B0FBF1F0401CC0F3A1
:1056C0000B0040F4804040F400402168C9694CF66A
:1056D000FF72914308432168C861D4E90701084378
:1056E0002168096821F0C001084321680860D4E9F5
:1056F000031008432168896848F2FF329143084348
:1057000021688860D4E9050108432168C96821F04F
:10571000FF0108432168C8602068006840F001006C
:105720002168086000202064202084F83D000020CB
:10573000206384F83E0000BF24E70000A08601003B
:1057400080841E0000093D0040420F0010B586B065
:105750000446142101A8FBF721FB2A49206888424E
:105760004DD100BF002000902748006840F00400A1
:10577000254908600846006800F00400009000BF5A
:1057800000BF00BF002000900846006840F0010004
:1057900008600846006800F00100009000BF00BFEC
:1057A00048150190122002900120039003200490DC
:1057B0000420059001A91548FFF7DAFD4FF4807029
:1057C00001901220029001200390032004900420F5
:1057D000059001A90E48FFF7CBFD00BF0020009007
:1057E00009481030006840F4000007491031086093
:1057F0000846006800F40000009000BF00BF06B03B
:1058000010BD0000005C004030380240000802403B
:105810000000024001464AF6AA200A6810600020F3
:1058200070470000034800680349097808440149AB
:105830000860704798000020A000002010B50D48B7
:10584000006840F400700B4908600846006840F4A6
:10585000806008600846006840F48070086003209B
:1058600000F0E0F80F2000F007F800F05FF80020EB
:1058700010BD0000003C02402DE9F04188B0044614
:105880000027B84600BF002001902448006840F07F
:105890000100224908600846006800F001000190FC
:1058A00000BF00BF02A903A801F034F9069F1FB989
:1058B00001F058F9054602E001F054F94500184896
:1058C000B5FBF0F0A0F101084FF0804015490860E9
:1058D00040F2E7311348C160C0F804800021016143
:1058E0008160816101F064FF064696B90D4802F0BF
:1058F0006FF806466EB91C2000F042F8102C07D253
:10590000002221461C2000F04FF80748046000E008
:105910000126304608B0BDE8F08100004038024062
:1059200040420F00182D00209C00002008B500BF49
:10593000002000901148006840F480400F49086042
:105940000846006800F48040009000BF00BF00BF20
:1059500000200090081F006840F08050091F086078
:105960000846006800F08050009000BF00BF002291
:105970000F21901E00F018F808BD000044380240C6
:105980000146084600280DDB00BF00BF00F01F03E2
:1059900001229A4043099B0003F1E023C3F8002150
:1059A00000BF00BF00BF70472DE9F05F80460D4685
:1059B000164600270CF07EFA074639462A4633463B
:1059C00001F00700C0F1070ABAF1040F02D94FF045
:1059D000040A01E0C0F1070AD14600F1040ABAF155
:1059E000070F02D24FF0000A01E0A0F1030AD446EB
:1059F0004FF0010A0AFA09FAAAF1010A0AEA020AB0
:105A00000AFA0CFA4FF0010B0BFA0CFBABF1010B8D
:105A10000BEA030B4AEA0B04214640460CF052FA0B
:105A2000BDE8F09F00BF00F00702064B19684FF673
:105A3000FF031940044B0B4343EA0221014B196059
:105A400000BF70470CED00E00000FA057047024609
:105A50001068416200207047F0B50346154618688B
:105A6000446A21B944EA05401E68B06219E018682A
:105A7000806A04EB1044002208E0186800F5827088
:105A800050F8220004EB1044501CC2B2481E904251
:105A9000F3D844EA0547186800F582704E1E40F8B6
:105AA00026700020F0BD10B50446D4F8E0040AF0DA
:105AB0006BFC10BD70B504460D4605EBC50304F143
:105AC000140101EB8301CA682946D4F8E0040AF006
:105AD00085FB70BD70B504460D4605EBC50304F5A6
