:020000040800F2
:1000000028CD0020610200080792000889650008D9
:10001000D1900008D318000881A700080000000054
:10002000000000000000000000000000A101000826
:100030003925000800000000FD010008AD9C000803
:100040007B0200087B0200087B0200087B0200089C
:100050007B0200087B0200083B2500087B020008A9
:100060007B020008452500084F2500087B02000898
:100070007B0200087B0200087B0200087B0200086C
:100080007B0200087B0200087B0200087B0200085C
:10009000391900087B0200087B0200085925000876
:1000A0007B0200087B0200087B0200087B0200083C
:1000B0007B0200087B0200087B0200087B0200082C
:1000C0007B0200087B0200087B0200087B0200081C
:1000D0007B0200087B0200087B0200082DA50008B7
:1000E0007B0200087B0200087B0200087B020008FC
:1000F0007B0200087B0200087B02000899210008AF
:100100007B0200087B0200087B0200087B020008DB
:100110007B0200087B0200087B0200087B020008CB
:100120007B0200087B0200087B0200087B020008BB
:100130007B0200087B0200087B0200087B020008AB
:10014000491900087B0200087B0200087B020008B6
:100150007B0200087B0200087B02000861A6000801
:100160007B0200087B0200087B0200087B0200087B
:100170007B0200087B0200087B02000800000000F0
:100180007B0200087B020008DFF810D001F018F8AD
:100190000048004715CF0008AFF3008028CD0020AD
:1001A0002C4B19680868B0E8F04F80F30988BFF35A
:1001B0006F8F4FF0000080F311887047000000003F
:1001C00008480068006880F308884FF0000080F35A
:1001D000148862B661B6BFF34F8FBFF36F8F00DF35
:1001E00000BF00BF08ED00E0DFF80C00016841F43B
:1001F00070010160704700BF88ED00E0EFF30980F7
:10020000BFF36F8F134B1A681EF0100F08BF20ED5D
:10021000108A20E9F04F106009B44FF0500080F3CD
:100220001188BFF34F8FBFF36F8F0EF085FC4FF037
:10023000000080F3118809BC19680868B0E8F04F25
:100240001EF0100F08BFB0EC108A80F30988BFF3CE
:100250006F8F704728000020EFF305807047000083
:100260000648804706480047FEE7FEE7FEE7FEE750
:10027000FEE7FEE7FEE7FEE7FEE7FEE78D9D0008EE
:10028000890100089FED1A1AF5EE000A40EE010AF6
:10029000BDEEE00AF5EEC00A10EE100AF1EE10FA1B
:1002A00038BF401E00EE100A1349F7EE001AB8EEF0
:1002B000C00A30EEC00ADFED0F0A20EE200AFCEE85
:1002C000C00A10EE900AC0F3080000EE900A01EB9D
:1002D0008000F8EE600A90ED011A70EE600A90ED71
:1002E000000A71EEE01A21EE800A00EE810A7047E2
:1002F00083F9223E00000044B0FB0008DFED190A3C
:10030000B5EEC00A60EE200ABDEEE01A11EE100A4A
:10031000F1EE10FA38BF401E00EE100A1349F7EE56
:10032000001AB8EEC00A30EEC00ADFED0F0A60EE28
:10033000200ABCEEE00A10EE100AC0F3080000EE3E
:10034000100A01EB8000B8EE400A90ED011A70EE41
:10035000C00A90ED000A71EEE01A21EE800A00EE6C
:10036000810A704783F9223E00000044B0FB000878
:1003700070B405880E884468D1F804C05368B5424B
:1003800008D140884988884201BF11888D42518830
:10039000884203D070BC6FF00200704705FB00F18B
:1003A000880827D094ED001ADCED000A94ED010ACC
:1003B000DCED011A31EE201AD4ED020A70EE211A9A
:1003C0009CED020A83ED001AC3ED011A94ED031AA5
:1003D000DCED031A30EE800A401E71EE210A83ED37
:1003E000020A04F11004C3ED030A03F110030CF137
:1003F000100CD7D111F0030030D0B0F1004F30D243
:1004000000282BDD211F1B1FACF1040210F0010F8F
:100410000AD091ED010AD2ED010A091D121D30EE3C
:10042000200A83ED010A1B1D400817D091ED010A37
:10043000D2ED010A401E30EE200A83ED010A91ED53
:10044000020AD2ED020A01F1080102F1080230EEBF
:10045000200A83ED020A03F10803E7D170BC0020F3
:100460007047B4EC010A401EFCEC010A30EE200A91
:10047000A3EC010AF5D1F1E70180428043607047A7
:100480002DE9F34F84B004984068009048680190CB
:100490000498B0F800E04588DFEDFE0A00200290E5
:1004A000B0EE600AAE4506D108884988884204BF8C
:1004B0007146864504D06FF0020006B0BDE8F08FAB
:1004C00001985FEA010C18BFB7EE001A3DD000BFDB
:1004D000BEEB0C0117D0B1F1004F80F01F82002954
:1004E00011DD021F11F0010F1CBFC2ED010A121D28
:1004F0004B1006D0C2ED010AC2ED020A08325B1EA3
:10050000F8D100EB8100BCF10102A0EC011A19D076
:10051000B2F1004F80F00882002A13DD031F12F0B1
:10052000010F1CBFC3ED010A1B1D511008D000BFF5
:10053000C3ED010AC3ED020A491E03F10803F7D116
:1005400000EB8200BCF1010CC2D14FF00008039512
:10055000002D14BFB0EE602A002000F0BF8100BF64
:10056000009908FB05F001EB800B0199DBED002AF7
:1005700001EB80000346F0EE421AC64552D9AEEBBD
:100580000802ABEB850112F0010F17D001EB8501DA
:1005900091ED000AB5EEC00AF1EE10FA07DDB4EEF7
:1005A000E10AF1EE10FA09DDF0EE401A06E0B1EED4
:1005B000400AF4EEC01AF1EE10FAF5D3521031D021
:1005C00001EB850C9CED000AB5EEC00AF1EE10FAC5
:1005D00005DDB4EEE10AF1EE10FA09DD06E0B1EE58
:1005E000400AF4EEC01AF1EE10FA01D2F0EE401A11
:1005F00001EBC50191ED000AB5EEC00AF1EE10FA6B
:1006000005DDB4EEE10AF1EE10FA09DD06E0B1EE27
:10061000400AF4EEC01AF1EE10FA01D2F0EE401AE0
:10062000521ECDD1F5EEC01AF1EE10FA00F0738132
:10063000F5EEC02A0126F1EE10FA0099D4BFB1EE12
:10064000620AB0EE620AB4EE610AF1EE10FA1CBF63
:10065000AEEB0802B2F1010C47D005FB08F201EB4A
:10066000820292ED001A00BFB0EE410A05FB06F4CB
:10067000B5EEC00A00EB8404F1EE10FACCBFF0EE48
:10068000400AF1EE400AF4EE610AF1EE10FA28D1C8
:10069000B5EB080C11D0BCF1004F7DD2BCF1000FBE
:1006A0000BDD00BF92ED000AD1ED000ABCF1010C98
:1006B000E2EC010AA1EC010AF4D129000ED0B1F15B
:1006C000004F6AD2002909DD94ED000AD0ED000A3E
:1006D000491EE4EC010AA0EC010AF5D101200290C8
:1006E0000BE0761CBCF1010CBED10298012804D0AD
:1006F000F5EEC02AF1EE10FA7ED09BED000AB5EBC4
:1007000008009A465946064622D0B0F1004F74D2EE
:1007100000281DDD091F10F0010F06D0F0EE400A81
:1007200080EEA01A81ED011A091D401010D000BF03
:10073000D1ED010A401E80EE801A81ED011A91ED83
:10074000021AC1EE000AC1ED020A01F10801EFD15F
:10075000280026D0B0F1004F7ED2002821DDAAF17A
:10076000040110F0010F06D0D1ED010A80EE801ACD
:1007700081ED011A091D401013D000BFD1ED010A0F
:10078000401E80EE801A81ED011AD1ED020A80EE42
:10079000801A81ED021A01E0CBE0D6E001F10801F8
:1007A000ECD1DDE900124FF000095FEA0E0773D0CB
:1007B000C14504BF01EB860102EB850274D091EDC7
:1007C000000ADC465046330035D01C46B6F1004FD7
:1007D0007ED2002C2FDD0B1FABF1040C16F0010FA5
:1007E0000FD0F0EE400ADCED011AB0EE601A00EE18
:1007F000E11A83ED011A01E08DE0B1E01B1D0CF15F
:10080000040C741015D000BFD3ED010A9CED011A41
:1008100040EE410AC3ED010AD3ED020A9CED021A33
:100820000CF1080C40EE410AC3ED020A0833641EC5
:10083000EAD101EB86012B0036D0B3F1004F72D222
:10084000002B31DDA2F1040CAAF1040013F0010F1A
:100850000CD0DCED010A00E08BE090ED011A001DE8
:1008600040EE410ACCED010A0CF1040C5C1019D0E9
:10087000DCED010A90ED011A40EE410ACCED010ACF
:10088000DCED020A90ED021A083040EE410ACCED90
:10089000020A03E0000000000DE005E0641E0CF118
:1008A000080CE5D102EB830201EB88017F1E09F100
:1008B00001097FF47DAF009808F10108001D009048
:1008C0000398401E03907FF44BAE0299012900E08B
:1008D00058E004BF06B0BDE8F08F00BFB5EEC00A17
:1008E000F1EE10FA7FF4E9AD04990EFB05F3002B4D
:1008F0004A684FF000010BD902EB810C9CED000A15
:10090000B5EEC00AF1EE10FA02D1491C8B42F3D8C1
:100910008B427FF4D2AD6FF00400CEE5E0EC010A2B
:10092000491EFBD1EFE538E0E0EC010A521EFBD195
:1009300008E692ED000AD1ED000ABCF1010CE2ECF0
:10094000010AA1EC010AF4D1B7E694ED000AD0ED5A
:10095000000A491EE4EC010AA0EC010AF5D1BDE64B
:10096000D1ED000A401E80EE801AA1EC011AF7D1E9
:10097000EEE6D3ED000A401E80EE801AA3EC011AC9
:10098000F7D10EE7BCEC011AD1ED000A5B1E40EE78
:10099000410AE1EC010AF5D14DE7B0EC011AD2EDC4
:1009A000000A5B1E40EE410AE2EC010AF5D17BE74A
:1009B0002DE9F04F82B04668536801930588478857
:1009C0004B88002000900888874201BFB2F800C021
:1009D0006545528893421EBF6FF0020002B0BDE829
:1009E000F08F9FED412A4FEA970EC7F3400B00BFEF
:1009F000DDE9000202EB800A4A6898464FF00009E0
:100A0000B0EE420AB4465FEA0E0025D092ED001A1D
:100A1000DCED001A02EB8302DCED010A01EE810A33
:100A200092ED001A02EB8302401ED2ED001A02EB97
:100A3000830200EE810A9CED021ADCED030A000439
:100A40000CF1100C000C01EE210A92ED001A02EBE1
:100A5000830200EE810AD9D117F0030026D0ACF151
:100A60000404A2EB830210F0010F08D002EB830212
:100A7000D4ED010A92ED001A241D00EE810A5FEA0E
:100A80000B0013D002EB830CD4ED010A9CED001A8D
:100A900002EBC302401E00EE810AD4ED020A92ED81
:100AA000001A04F1080400EE810AEBD109F10100FB
:100AB000AAEC010A1FFA80F9486800EB8902A8F144
:100AC00001001FFA80F8B8F1000F99D1009806EBE9
:100AD0008706184480B20090681E05042D0C87D14B
:100AE00002B00020BDE8F08F0000000070B405885F
:100AF0000E884468D1F804C05368B54208D14088D4
:100B00004988884201BF11888D425188884203D0AC
:100B100070BC6FF00200704705FB00F1880827D019
:100B200094ED001ADCED000A94ED010ADCED011AE7
:100B300031EE601AD4ED020A70EE611A9CED020AE1
:100B400083ED001AC3ED011A94ED031ADCED031ACC
:100B500030EEC00A401E71EE610A83ED020A04F114
:100B60001004C3ED030A03F110030CF1100CD7D1EC
:100B700011F0030030D0B0F1004F30D200282BDD4F
:100B8000211F1B1FACF1040210F0010F0AD091EDE0
:100B9000010AD2ED010A091D121D30EE600A83ED33
:100BA000010A1B1D400817D091ED010AD2ED010A80
:100BB000401E30EE600A83ED010A91ED020AD2ED8B
:100BC000020A01F1080102F1080230EE600A83ED29
:100BD000020A03F10803E7D170BC00207047B4ECAF
:100BE000010A401EFCEC010A30EE600AA3EC010A87
:100BF000F5D1F1E72DE9F04F02884768B0F802809F
:100C00004888D1F8049082B04FF0000A164682421C
:100C100007BF098888456FF0020002B018BFBDE821
:100C2000F08F4FEA980B02EB42000190C8F34000AE
:100C3000CDF8000009EB8A01BBF1000F33D0019819
:100C400001EB820C01EB80043B46E64601EBC2055A
:100C50004FEA0B0093ED000A401E81ED000A93ED70
:100C6000010A01EB02118CED000A93ED020A0CEB74
:100C7000021C85ED000A93ED030A05EB021584EDD5
:100C8000000A04EB021403F11003E3D10EEB82001F
:100C900000EB820000EB8201ABF10100504307EB57
:100CA0000B1701EB001118F0030C21D03B1FA1EB37
:100CB00082011CF0010F06D093ED010A01EB8201C5
:100CC0001B1D81ED000A009880B100BF93ED010A61
:100CD00001EB820401EBC20184ED000A93ED020AEC
:100CE000401E81ED000A03F10803EFD107EB8C07EA
:100CF0000AF101001FFA80FA701E0604360C99D121
:100D000002B00020BDE8F08F2DE9F05F054600201D
:100D100092469B4688460646814640241BE028466C
:100D200041464746224600F029F953465A46C01A22
:100D3000914110D311461846224600F010F92D1AA1
:100D400067EB01084F4622460120002100F007F919
:100D500017EB00094E41201EA4F10104DFDC4846D8
:100D600031462A464346BDE8F09F40EA01039B070F
:100D700003D009E008C9121F08C0042AFAD203E010
:100D800011F8013B00F8013B521EF9D27047D2B274
:100D900001E000F8012B491EFBD270470022F6E764
:100DA00010B513460A4604461946FFF7F0FF2046E1
:100DB00010BD2DE9FE4F804681EA0300C00F0C46AE
:100DC000009021F0004123F00045B8EB0200A9415A
:100DD00005D24046214690461C460B46024623F06B
:100DE0000040104347D0270DC7F30A00C3F30A5150
:100DF0000290401A019040286BDAC3F3130040F4CC
:100E0000801B0098924620B10023D2EB030A63EBCB
:100E10000B0B01985946C0F14002504600F09FF874
:100E200006460D4650465946019A00F0B7F810EBB9
:100E300008006141002487EA115284EAE7731A43EB
:100E400040D0009A62B3019A012A4FEA075215DC9A
:100E5000001B61EB02014FF0004202EA0752CDE9AC
:100E60000042001C41F5801132462B4600F0EEF89E
:100E700003B0BDE8F08F40462146F9E7001B61EB67
:100E80000201001C41F5801300185B412018A2F5F7
:100E9000001747EB030140EAD570B6196D4111E028
:100EA0006D084FEA360645EAC0754FEA0752001B47
:100EB00061EB0201001C41F5801149084FEA300046
:100EC0000019514132462B4603B0BDE8F04F00F007
:100ED000AEB80098012240000023D0EB020263EB81
:100EE000E073009821464FEAE074B8EB000061EB34
:100EF0000401E9E783F000435BE781F0004158E734
:100F000000F0004230F000400AD0C10D01F56071E0
:100F1000C0F3160042EA0151C2084007114370476E
:100F200000200146704701F0004330B421F0004139
:100F300050EA010206D00A0DA2F56072C1F3130156
:100F4000002A02DC30BC00207047440F44EAC10490
:100F5000C100E01830BC00EBC25000F031B8202ACC
:100F600004DB203A00FA02F1002070479140C2F100
:100F7000200320FA03F3194390407047202A04DB32
:100F8000203A21FA02F00021704721FA02F3D04002
:100F9000C2F120029140084319467047202A06DB1F
:100FA000CB17203A41FA02F043EAE07306E041FA37
:100FB00002F3D040C2F12002914008431946704725
:100FC0000029A8BF7047401C490008BF20F001005D
:100FD000704710B4B0FA80FC00FA0CF050EA01043B
:100FE00004BF10BC704749B1CCF1200421FA04F4CD
:100FF00011FA0CF118BF012121430843A3EB0C01A6
:10100000CB1D4FEA00614FEA102042BF002010BC08
:10101000704700EBC35010440029A4BF10BC7047B8
:10102000401C490008BF20F0010010BC704710B5FB
:10103000141E73F1000408DA401C41F100019218FB
:101040005B411A4301D120F0010010BD2DE9F04DA4
:1010500092469B4611B1B1FA81F202E0B0FA80F2F9
:1010600020329046FFF77BFF04460F4640EA0A0015
:1010700041EA0B0153465A46084313D0114653EA3E
:10108000010019D0C8F140025046FFF777FF05462E
:101090000E46504659464246FFF761FF084305D0C9
:1010A000012004E020463946BDE8F08D00200543CC
:1010B00046EAE0762C4337430A986305E40AA0EB3E
:1010C00008000022FD0A44EA47540A3002D50020F5
:1010D0000146E9E7010510196941DDE908450019F4
:1010E0006941BDE8F04DA2E72DE9F04D00231A4615
:1010F0001B1A8A4103DB00200146BDE8F08DC1F3D5
:101100000A52C1F3130141F480154FF0000BD107CF
:1011100002D100186D41521E0027044640F2FF1113
:10112000384601EB620A3E468046024600204FF4F4
:101130008011FFF723FFC2197141BB1846EB010074
:10114000B4EB030C75EB000C04D3E41A65EB00055B
:1011500017460E46241908F101006D4180463428D7
:10116000E3DDF91946EB0600091BA84103D24FF055
:10117000FF32134601E0002213461BEB070046EB4B
:101180000A51BDE8F04DFFF752BF002801DBC0F166
:101190000040002901DBC1F10041814202D24FF041
:1011A000004004E04FF0005001D14FF0C0404FEA42
:1011B0002062EFF3008162F31F6181F300887047C2
:1011C000064C074D06E0E06840F0010394E8070094
:1011D00098471034AC42F6D3FEF7DAFFE803010873
:1011E0000804010870B58C1810F8015B15F00703AE
:1011F00001D110F8013B2A1106D110F8012B03E0B0
:1012000010F8016B01F8016B5B1EF9D12B0705D4B7
:101210000023521E0DD401F8013BFAE710F8013B00
:10122000CB1A921C03E013F8015B01F8015B521E1C
:10123000F9D5A142D8D3002070BD000055494A68B5
:1012400022F440324A604A6843681A434A6002689E
:10125000526822F4807203685A6002685368026917
:1012600043EA022203685A600268526822F0407220
:1012700003685A600268526883681A4303685A60B8
:101280000268926822F4006203689A6002689268B9
:10129000C3681A4303689A603F4B826A9A4218D027
:1012A0000268926822F0706203689A60026892682D
:1012B000836A1A4303689A600268926822F0405277
:1012C00003689A6002689268C36A1A4303689A6066
:1012D0000BE00268926822F0706203689A6002680C
:1012E000926822F0405203689A600268926822F085
:1012F000020203689A6002689368027E43EA42022F
:1013000003689A602022125CA2B10268526842F41B
:10131000006203685A600268526822F460420368FF
:101320005A6002685368426A521E43EA42320368B6
:101330005A6005E00268526822F4006203685A604D
:101340000268D26A22F470020368DA620268D36A21
:10135000828B521E43EA02520368DA620268926884
:1013600022F4007203689A600268936890F8302053
:1013700043EA422203689A600268926822F480621B
:1013800003689A6002689368426943EA82220368AC
:101390009A607047002301400100000F10B5012240
:1013A0001021024803F0E6F910BD000000000240E1
:1013B00010B500221021024803F0DCF910BD000036
:1013C0000000024010B501221146024803F0D2F994
:1013D00010BD00000004024010B5002201210248A7
:1013E00003F0C8F910BD00000004024010B5044627
:1013F000FFF7DEFF922000F0A3F9062295491220A4
:1014000000F07EF9FFF7CAFF92484078000200B270
:10141000904909780843904908800846B0F90000CF
:1014200000EE100AB8EEC00A8C48D0ED000A20EE9B
:10143000200AD4ED080A20EE200A84ED000A85482F
:10144000C078000200B28349897808438249088045
:101450000846B0F9000000EE100AB8EEC00A7F4856
:10146000D0ED000A20EE200AD4ED080A20EE200A72
:1014700084ED010A77484079000200B27549097984
:101480000843754908800846B0F9000000EE100ACC
:10149000B8EEC00A7148D0ED000A20EE200AD4ED63
:1014A000080A20EE200A84ED020AFFF795FF0822C1
:1014B0006849002000F024F9FFF784FF65480078B0
:1014C0000F284FD166480078F0B36248C078000218
:1014D00000B26049897808435F49088094ED090AA1
:1014E0000846B0F9000000EE900AF8EEE00A5D4808
:1014F00090ED001A10EE810A84ED030A55484079F8
:10150000000200B25349097908435349088094ED19
:101510000A0A0846B0F9000000EE900AF8EEE00A68
:10152000504890ED001A10EE810A84ED040A4948F3
:10153000C079000200B247498979084346490880CA
:1015400094ED0B0A084600E00DE0B0F9000000EE53
:10155000900AF8EEE00A434890ED001A10EE810A76
:1015600084ED050A44E03B48C078000200B23949E6
:1015700089780843384908800846B0F9000000EE31
:10158000100AB8EEC00A3748D0ED000A20EE200A53
:1015900084ED030A2F484079000200B22D490979F1
:1015A00008432D4908800846B0F9000000EE100AF3
:1015B000B8EEC00A2B48D0ED000A20EE200A84EDD8
:1015C000040A2448C079000200B2224989790843FC
:1015D000214908800846B0F9000000EE100AB8EE74
:1015E000C00A2048D0ED000A20EE200A84ED050A4A
:1015F000FFF7DEFEA22000F0A3F802221549222008
:1016000000F07EF8FFF7CAFE12480078C0001149CA
:10161000497840EA6110104908800846B0F9000096
:10162000B0F5806F05DB08460088A0F5006000B2C9
:1016300008800948B0F9000000EE100AF8EEC00A70
:10164000B4EE001AB3EE070A00EE810A84ED070A31
:1016500010BD0000560400205E0400201804002085
:10166000280400201C04002070B504460D461C48C8
:10167000046000201B4908700AF0B2FB1949097880
:101680000843184908700AF061FC164909780843B4
:10169000144908701DB1144800F05EF91CE09FED7C
:1016A000130A114880ED090A9FED110A80ED0A0A1C
:1016B0009FED0F0A80ED0B0A9FED0E0A80ED0C0ADC
:1016C00090ED0C0ADFED0C0A80EE801A80ED081A0E
:1016D0009FED0A0A80ED060A0248007870BD0000FE
:1016E00060040020220400204C8A0020AC38223BF9
:1016F000B016CE393F161B41C3F51C4100002042F5
:1017000070B506460C46154646F0800000F018F805
:1017100006E0552000F014F82070641C681EC5B265
:10172000002DF6D170BD70B504460D4644F0800022
:1017300000F006F8552000F003F8287070BD000096
:1017400001B582B04FF47A70012301AA02A900907A
:101750000348006804F0CAF89DF804000EBD0000BC
:101760006004002070B505460C462846FFF7E8FFE8
:101770002046FFF7E5FF70BDD2ED020A92ED021A96
:10178000B6EE000A00EEC10AD2ED030A92ED031A8A
:1017900000EEC10AD0ED000A20EE200AD2ED010AC7
:1017A00092ED021A60EE810A92ED001AD2ED031A50
:1017B00041EE610A90ED011A00EE810AD2ED010AB4
:1017C00092ED031A60EE810A92ED001AD2ED021A30
:1017D00041EE210A90ED021A00EE810AF0EE000AB5
:1017E00020EE200A81ED000A92ED010AD2ED020AF4
:1017F00020EE200AD2ED000A92ED031A00EE810AD3
:10180000D0ED000A60EE200A92ED011AD2ED011A25
:10181000B6EE000A01EE610AD2ED031A92ED032A38
:10182000B0EE401A01EEC21AD0ED011AB0EE600A15
:1018300001EE210AD2ED020A92ED031A60EE810A4E
:1018400092ED001AD2ED011A41EE610A90ED021AF2
:1018500000EE810AF0EE000A20EE200A81ED010A76
:1018600092ED010AD2ED030A20EE200AD2ED000A21
:1018700092ED021A00EEC10AD0ED000A20EE200A15
:10188000D2ED020A92ED031A60EE810A92ED001A7F
:10189000D2ED011A41EE210A90ED011A00EE810A03
:1018A00092ED011AD2ED011AF6EE000A41EE610A3C
:1018B00092ED021AD2ED021A41EE610A90ED021A7F
:1018C00000EE810AF0EE000A20EE200A81ED020A05
:1018D000704700BFFEE70000002002490968C863A6
:1018E00070470000F013002070B505460C4642F228
:1018F0001070B0FBF5F007490968886244F6206073
:1019000004490968C863204602F010FEFFF7E4FFAF
:1019100070BD0000F013002010B5C8210846FFF785
:10192000E3FFC8214FF49670FFF7DEFFC82148009F
:10193000FFF7DAFF10BD000010B5024801F03BFDD3
:1019400010BD00001C08002010B5024801F033FD56
:1019500010BD00004408002070B52DED048B88B048
:10196000044600200690079000F020FDFE4880ED20
:10197000000A00BF00F01AFDFB48D0ED000A30EE6F
:10198000600AF2EE040AB4EEE00AF1EE10FA14DD99
:101990009FEDF60A84ED090A9FEDF50A84ED0A0A27
:1019A0009FEDF30A84ED0B0A9FEDF20A84ED0C0A19
:1019B0009FEDF10A84ED060A55E29FEDF00A00F072
:1019C000B1FC9FEDEF0A84ED0C0A9FEDED0A84ED6A
:1019D000090A9FEDEB0A84ED0A0A9FEDE90A84EDFE
:1019E0000B0A002673E1FFF7E3FC9220FFF7A8FE45
:1019F000062206A91220FFF783FEFFF7CFFC9DF811
:101A00001900000200B29DF8181040EA010500EE2E
:101A1000105AB8EEC00ADB48D0ED000A20EE200ACA
:101A200084ED000A9DF81B00000200B29DF81A1018
:101A300040EA010500EE105AB8EEC00AD148D0EDD8
:101A4000000A20EE200A84ED010A9DF81D00000224
:101A500000B29DF81C1040EA010500EE105AB8EEE5
:101A6000C00AC848D0ED000A20EE200A84ED020A20
:101A7000D4ED000A60EEA00A94ED011AD4ED011A2B
:101A800041EE210A94ED021AD4ED021A41EE210A28
:101A9000B0EE600A09F07BFCB0EE408A94ED0C0ACF
:101AA00030EE080A84ED0C0AFFF796FC082206A91E
:101AB0000020FFF725FEFFF785FC9DF818000F2892
:101AC00050D19DF81B00000200B29DF81A1040EAA8
:101AD000010500EE105AB8EEC00AAB48D0ED000A7E
:101AE00020EE200A84ED030A94ED090AD4ED030ADE
:101AF00030EE200A84ED090A9DF81D00000200B2B4
:101B00009DF81C1040EA010500EE105AB8EEC00A1C
:101B10009D48D0ED000A20EE200A84ED040A94EDE1
:101B20000A0AD4ED040A30EE200A84ED0A0A9DF870
:101B30001F00000200B29DF81E1040EA010500EEF1
:101B4000105AB8EEC00A9048D0ED000A20EE200AE4
:101B500084ED050A94ED0B0AD4ED050A30EE200A57
:101B600084ED0B0A06BBF0EE488AB0EE489A0020DE
:101B700017E004F10C0101EB800191ED000A03A9CB
:101B800001EB800181ED000A04F10C0101EB800101
:101B900091ED000A694601EB800181ED000A411CCC
:101BA000C8B20328E5DB49E0B4EEE88AF1EE10FAAA
:101BB00001DDF0EE488AB4EEC98AF1EE10FA01D2E6
:101BC000B0EE489A002037E004F10C0101EB8001EF
:101BD00091ED000A03A901EB8001D1ED000AB4EEFA
:101BE000E00AF1EE10FA0ADD04F10C0101EB8001CC
:101BF00091ED000A03A901EB800181ED000A04F1D7
:101C00000C0101EB800191ED000A694601EB8001B6
:101C1000D1ED000AB4EEE00AF1EE10FA0AD204F1B6
:101C20000C0101EB800191ED000A694601EB800196
:101C300081ED000A411CC8B20328C5DB38EEC90A91
:101C4000524880ED000A002012E003A901EB800158
:101C500091ED000A694601EB8001D1ED000A30EEFA
:101C6000600A4B4901EB800181ED000A411CC8B2BA
:101C70000328EADB454890ED000AF6EE000AB4EED0
:101C8000E00AF1EE10FA1BDC414890ED000ADFEDAE
:101C9000410AB4EEE00AF1EE10FA11DC90ED010A0F
:101CA000DFED3C0AB4EEE00AF1EE10FA08DC90ED4C
:101CB000020ADFED380AB4EEE00AF1EE10FA00DDB8
:101CC0000AE09FED350A00F02DFB701C86B2334808
:101CD00000888642FFF687AE00BFD4ED0C0A2F487D
:101CE000008800EE100AB8EE400A80EE801A84EDFB
:101CF0000C1A002015E004F1240101EB8001D1ED64
:101D0000000A2649098800EE101AB8EE400A80EE53
:101D1000801A04F1240101EB800181ED001A411CBD
:101D2000C8B20328E7DBFFF743FBA220FFF708FD5B
:101D3000022206A92220FFF7E3FCFFF72FFB9DF804
:101D40001800C0009DF8191040EA6115B5F5806FC4
:101D500002DBA5F5006005B200EE105AF8EEC00AED
:101D6000B4EE001A1CE0000050040020AC38223B06
:101D7000B016CE393F161B41000020420AD7A33BC4
:101D800000000000180400201C040020240400208F
:101D9000408A00209A99193E6F12033A5404002099
:101DA000B3EE070A00EE810A84ED060A3448008883
:101DB000401C00B232490880324890ED000AF6EE2D
:101DC000000AB4EEE00AF1EE10FA3FF7D3AD94ED5D
:101DD0000C0ADFED2D0A30EE600AB0EEC00AF6EE16
:101DE000000AB4EEE00AF1EE10FAEEDC274890EDBE
:101DF000000A5FED180AB4EEE00AF1EE10FAE4DC36
:101E000090ED010A5FED1D0AB4EEE00AF1EE10FA62
:101E1000DBDC90ED020A5FED210AB4EEE00AF1EEA0
:101E200010FAD2DC94ED090AB0EEC00ADFED180A10
:101E3000B4EEE00AF1EE10FAC7DC94ED0A0AB0EE57
:101E4000C00ADFED130AB4EEE00AF1EE10FABCDCD2
:101E500094ED0B0AB0EEC00ADFED0D0AB4EEE00A15
:101E6000F1EE10FAB1DC00BF94ED0C0ADFED090AC7
:101E700080EE801A84ED081A08B0BDEC048B70BDAA
:101E80002A04002024040020CDCC1C41408A0020DC
:101E90000AD7233CC3F51C4110B59FED830A834844
:101EA00080ED010A9FED820A80ED020A9FED810A12
:101EB00080ED030A9FED800A80ED040A9FED7C0A05
:101EC00080ED050A9FED780A80ED160A9FED780AED
:101ED00080ED170A9FED770A80ED180A9FED760ACC
:101EE00080ED190A9FED720A80ED1A0A9FED730AC0
:101EF00080ED2B0A9FED6E0A80ED2C0AB2EE060AE9
:101F000080ED2D0AB0EE000A80ED2E0A9FED680AE2
:101F100080ED2F0A9FED690A80ED400A9FED640A6B
:101F200080ED410AB2EE060A80ED420AB0EE000AE8
:101F300080ED430A9FED5E0A80ED440A9FED600A42
:101F400080ED550A9FED5A0A80ED560AB6EE000A5A
:101F500080ED570AB7EE080A80ED580A9FED540A43
:101F600080ED590A9FED570A80ED6A0A9FED500AED
:101F700080ED6B0A9FED4E0A80ED6C0AB3EE0E0AFF
:101F800080ED6D0A9FED4A0A80ED6E0A9FED4E0AC4
:101F900080ED7F0A9FED460A80ED800AB0EE080AC8
:101FA00080ED810AB7EE080A80ED820A9FED400AB3
:101FB00080ED830A9FED450A80ED940A9FED3C0A6F
:101FC00080ED950AB1EE000A80ED960A9FED400A79
:101FD00080ED970A9FED3E0A80ED980A9FED340A46
:101FE0003C4880ED010A9FED320A80ED020A9FED28
:101FF000300A80ED030A9FED2E0A80ED040A9FED62
:102000002C0A80ED050A9FED2C0A334880ED010A69
:102010009FED270A80ED020A9FED300A80ED030A4A
:10202000B2EE040A80ED040A9FED210A80ED050A54
:102030009FED210A2A4880ED010A9FED1D0A80EDDF
:10204000020A9FED260A80ED030AB2EE040A80ED33
:10205000040A9FED170A80ED050A9FED220A224827
:1020600080ED0B0A80ED0A0AB7EE000A1F4880EDEA
:10207000000AB7EE000A1E4880ED000AB7EE000A1B
:102080001C4880ED000AB7EE000A1B4880ED000AEC
:102090000A211A4800F078FB0A21194800F074FB65
:1020A00007F05CF810BD00000000FA43B07E00208D
:1020B000000000000080BB450000A0423333D33F46
:1020C000CDCCCC3DCDCC4C3F6666A63F0000AC41AC
:1020D0000000164570840020F88100200000C843ED
:1020E0004C8200208FC2F53DC4840020D80200201D
:1020F000E0020020D4020020DC020020C48700207F
:102100004C8800204A780B7842EA032212B202601F
:10211000CA788B7842EA032212B282804A790B791C
:1021200042EA032212B2C2808A79027270472DE914
:10213000F04389B081460E4614461D46DDE91087FE
:10214000002007900890009608200490002002903C
:102150000390200A8DF81C00E0B28DF81D00280ABB
:102160008DF81E00E8B28DF81F004FEA18208DF898
:10217000200008F0FF008DF82100380A8DF82200B9
:10218000F8B28DF8230006AB07AA6946484600F06E
:1021900016FF09B0BDE8F0831B48406800F00060FE
:1021A00080B31A48406B00681949884205D94FF03E
:1021B000006017494C3908601CE01448406B006807
:1021C0001149B831884205D94FF0006010495039A3
:1021D00008600FE00D48406B00680B495831884299
:1021E00004D94FF000600849C86003E04FF0006078
:1021F0000549886005480068006840F4007003499C
:10220000096808607047000000600240680F002005
:10221000586402400146087810381823B0FBF3F2E6
:102220000848805CC865032A05D908686FF309006F
:10223000001D886503E008686FF309008865886DF4
:1022400070470000C0FA0008014600208A6A8B69C6
:10225000CBB932B1012A0DD0022A03D0032A10D102
:102260000EE000BFCB6A03F08073B3F1807F00D132
:10227000012007E0CB6AB3F1C07F00D1012001E06B
:1022800000E000BF34E08B69B3F5005F1AD132B1D2
:10229000012A07D0022A03D0032A11D10AE000BF85
:1022A00001200EE0CB6A03F08073B3F1807F00D190
:1022B000012006E0CB6AB3F1C07F00D1012000E02D
:1022C00000BF15E032B1012A05D0022A04D0032A4A
:1022D0000CD103E000BF00BF012008E0CB6A03F08F
:1022E0008073B3F1807F00D1012000E000BF00BF08
:1022F0007047000008B508484068009007490098FA
:102300000968884204D206480068401C04490860F5
:1023100002490098086008BD001000E0F8000020A5
:10232000F40000200C494868F0EE400A00BF0A495A
:102330004968091A01EE101AF8EE411A074991EDA1
:10234000001AB8EE411A20EE811AF4EEC11AF1EE2D
:1023500010FAECD370470000001000E0E800002005
:1023600010B52DED028B82B004460E4840680190F6
:1023700020680199081A00EE100AF8EE400A0A488F
:1023800090ED000AB8EE400A80EE801AB0EE418A65
:1023900001982060FFF7AEFFB0EE480A02B0BDEC36
:1023A000028B10BD001000E0E800002010B52DEDFC
:1023B000028B00F059F80F4890ED000AB8EE400A81
:1023C000808800EE900AF8EE600A9FED0B1A00EE8E
:1023D000810A0848C08800EE900AF8EE600A9FED76
:1023E000071A00EE810AB0EE408AB0EE480ABDEC52
:1023F000028B10BDE00000206F12833ABD37863596
:102400001249096841F08071104A11600021104A98
:1024100051601146096841F0010111600D494143C5
:102420000D4A1160114609684FF47A72B1FBF2F15E
:102430000A4A116008490968064AB1FBF2F1084AE4
:1024400011600021074A116070470000FCED00E0B8
:10245000001000E040420F00E8000020EC000020E7
:10246000F0000020F400002038B5294840680090B2
:10247000FFF740FF274800684FF0FF31A0FB013114
:102480000098181841F10001234A03C22348002391
:102490002149026803C9FEF737FC214A03C22048DC
:1024A0000CC81E4800680024A2FB001503FB005066
:1024B00002FB04021848D0E90030591A60EB020010
:1024C000184AC2E900101648006817490860174802
:1024D00000231449026803C9FEF716FC12498880DC
:1024E000084680881149096841430E48D0E9003008
:1024F000591A60F100000E4AC2E900100D4800238D
:102500000B49026803C9FEF7FFFB0749C88038BDC5
:10251000001000E0F400002000010020E80000208E
:102520000801002010010020E0000020EC00002045
:1025300018010020F0000020704710B5012002F0C3
:102540000BF810BD10B5082002F006F810BD10B54C
:10255000102002F001F810BD10B5202001F0FCFFA2
:1025600010BDD2ED020A92ED021AB6EE000A00EE9C
:10257000C10AD2ED030A92ED031A00EEC10AD0EDB2
:10258000000A20EE200AD2ED010A92ED021A60EE56
:10259000810A92ED001AD2ED031A41EE210A90ED64
:1025A000011A00EE810AD2ED010A92ED031A60EEE3
:1025B000810A92ED001AD2ED021A41EE610A90ED05
:1025C000021A00EE810AF0EE000A20EE200A81EDE8
:1025D000000A92ED010AD2ED020A20EE200AD2EDA5
:1025E000000A92ED031A00EEC10AD0ED000A60EE77
:1025F000200A92ED011AD2ED011AB6EE000A01EEA0
:10260000610AD2ED031A92ED032AB0EE401A01EEF0
:10261000C21AD0ED011AB0EE600A01EE210AD2ED25
:10262000020A92ED031A60EE810A92ED001AD2EDD1
:10263000011A41EE210A90ED021A00EE810AF0EE35
:10264000000A20EE200A81ED010A92ED010AD2ED86
:10265000030A20EE200AD2ED000A92ED021A00EEE3
:10266000810AD0ED000A20EE200AD2ED020A92ED96
:10267000031A60EE810A92ED001AD2ED011A41EEC2
:10268000610A90ED011A00EE810A92ED011AD2ED75
:10269000011AF6EE000A41EE610A92ED021AD2ED3D
:1026A000021A41EE610A90ED021A00EE810AF0EE84
:1026B000000A20EE200A81ED020A704770470000F0
:1026C00010B50446242204F5DC7104F5EE70FEF723
:1026D0004CFB204600F07CF904F1A00104F1280035
:1026E00000F0ECF804F1B40104F13C0000F0F8F85B
:1026F00004F1C80104F1500000F004F904F1DC0118
:1027000004F1640000F010F904F1F00104F1780024
:1027100000F01CF904F5827104F18C0000F028F936
:1027200004F2492000F046F94FF4EC71085140F2F0
:102730005320005D012803D0002084F8480202E005
:10274000012084F848020E49204600F04BF940F27F
:10275000CB2108550B49204600F088F984F8CC02BB
:1027600040F2CB20005D012805D194F8CC0201286D
:1027700001D1012100E0002184F8CD1210BD00003C
:102780004C850020F88500200246202901DC002924
:1027900001DC00207047002007E09FED0A0A02EBF1
:1027A000800383ED000A431CD8B28842F5DB82F82F
:1027B0008410002082F885009FED020A82ED200A35
:1027C0000120E7E70000000010B5F0EE400A9FEDA1
:1027D000370AF4EEC00AF1EE10FA06DC9FED340A77
:1027E000F4EEC00AF1EE10FA02D290ED200A10BD0C
:1027F0003049098840F23322914216D290F8851070
:1028000000EB810191ED000A30EEC01A90F88410BF
:1028100000EE101AB8EE400AC1EE001A90ED200A40
:1028200031EE800A80ED200A28E09FED230A80ED3A
:10283000200A90F8851013E000EB810292ED001A57
:1028400090F8842000EE102AB8EE400AC1EE001A7B
:1028500090ED200A31EE800A80ED200A4A1CD1B2A8
:102860008430427810F884391A4492FBF3F403FB65
:1028700014228A42E0DC00210E4A118090F8851073
:1028800000EB8101C1ED000A80304179491C0279D9
:1028900091FBF2F302FB1311417106490988491CAF
:1028A000044A118090ED000A8038A0E7EC78AD6012
:1028B000EC78ADE00C0800200000000070B5054683
:1028C0000C46142204492846FEF74FFA1422034905
:1028D0002046FEF74AFA70BD44770020BC770020FE
:1028E00070B505460C46142204492846FEF73DFA09
:1028F000142203492046FEF738FA70BD58770020AD
:10290000D077002070B505460C46142204492846AD
:10291000FEF72BFA142203492046FEF726FA70BD73
:102920006C770020E477002070B505460C46142231
:1029300004492846FEF719FA142203492046FEF7F7
:1029400014FA70BD80770020F877002070B5054636
:102950000C46142204492846FEF707FA14220349BC
:102960002046FEF702FA70BD947700200C78002014
:1029700070B505460C46142204492846FEF7F5F9C1
:10298000142203492046FEF7F0F970BDA877002015
:102990002078002010B50446054800F05DFA0A21B1
:1029A000034800F0F7F90A21014800F0F3F910BDDF
:1029B000E012002010B504461A2203492046FEF713
:1029C000D4F90248006810BDDC8900200C04002006
:1029D00010B50446142202492046FEF7C6F910BD80
:1029E0003077002070B505460C46D4ED210AB0EED4
:1029F000600AFDF747FCD4ED1F0A20EE200A1948B3
:102A000080ED080AD4ED210AB0EE600AFDF776FCED
:102A1000D4ED200A20EE200AD4ED0B0A80EE201A15
:102A2000104880ED061A90ED080AD0ED060A30EE47
:102A3000200A85EDAC0AD5EDAC0AB0EE600A0A4872
:102A4000FFF7C2FE85EDAC0A95EDAC0AF2EE0E0A78
:102A5000B4EEE00AF1EE10FA01D2012070BD0020C0
:102A6000FCE70000E4070020C487002070B505469D
:102A70000C46D4ED210AB0EE600AFDF703FCD4ED5C
:102A80001F0A20EE200A194880ED090AD4ED210A18
:102A9000B0EE600AFDF732FCD4ED200A20EE200AE9
:102AA000D4ED0B0A80EE201A104880ED071A90ED45
:102AB000090AD0ED070A30EE200A85EDAD0AD5ED02
:102AC000AD0AB0EE600A0A48FFF77EFE85EDAD0A5A
:102AD00095EDAD0AF2EE0E0AB4EEE00AF1EE10FA50
:102AE00001D2012070BD0020FCE70000E4070020B7
:102AF0004C88002038B502460020009000BF92F8B4
:102B00003C00012801D1022038BD012082F83C00A0
:102B100000BF0868092816D91068C0680C780A3CFC
:102B200004EB44050724AC40A0431468E0600C7833
:102B30000A3C04EB44048868A0401468E46820431D
:102B40001468E06013E0106800690C7804EB440539
:102B50000724AC40A043146820610C7804EB4404C3
:102B60008868A0401468246920431468206148687C
:102B7000072817D21068406B0C79641E04EB84059B
:102B80001F24AC40A04314686063088880B20C79AD
:102B9000641E04EB8404A0401468646B2043146832
:102BA000606331E048680D2817D21068006B0C791B
:102BB000E41F04EB84051F24AC40A0431468206389
:102BC000088880B20C79E41F04EB8404A0401468E8
:102BD000246B20431468206316E01068C06A0C79E7
:102BE0000D3C04EB84051F24AC40A0431468E06254
:102BF000088880B20C790D3C04EB8404A040146872
:102C0000E46A20431468E062194B1A4C1068A04231
:102C100006D10868122803D1586840F48000586033
:102C2000144C1068A0421CD10868102802D0086813
:102C3000112816D1586840F4000058600868102820
:102C40000FD10D4800680D4CB0FBF4F000EB800094
:102C50004000009002E00098401E0090009800287C
:102C6000F9D100BF002082F83C0000BF00BF4BE755
:102C700000230140002001402400002040420F00BA
:102C800070B5044600250CB9012070BD1549A06A35
:102C9000884200D000BF206C30B9204600F024F8F4
:102CA0000020606484F83C00206C00F0100088B9BB
:102CB000206C20F4885040F0020020642046FEF78B
:102CC000BDFA00206064206C20F0020040F001009A
:102CD000206400E0012500BF002084F83C0000BF14
:102CE0002846D2E70100000F10B586B00446142133
:102CF00001A8FEF753F82349206888420FD100BF8E
:102D0000002000902048006840F480701E49086050
:102D10000846006800F48070009000BF2FE01B4957
:102D2000206888422BD100BF002000901648006820
:102D300040F48060144908600846006800F4806030
:102D4000009000BF00BF00BF002000900E48143864
:102D5000006840F020000C491439086008460068FB
:102D600000F02000009000BF00BF08150190032074
:102D700002900020039001A9054801F0FBFB06B07A
:102D800010BD0000002001404438024000220140F4
:102D90000014024070B504460D4600262068806885
:102DA00000F48060B0F5806F11D12068806800F475
:102DB0008070B0F5807F0AD1206C40F02000206444
:102DC00000BF002084F83C0000BF012070BD01F06E
:102DD000D7FC064612E0681C80B125B101F0D0FC9A
:102DE000801BA8420AD9206C40F00400206400BF78
:102DF000002084F83C0000BF0320E7E7206800685B
:102E000000F002000228E6D16FF01200216808608D
:102E1000206C40F4007020642068806800F040500E
:102E2000B8B9207EA8B92068C06A00F4700020B14B
:102E30002068806800F4806058B9206C20F48070AD
:102E40002064206C00F4805018B9206C40F0010020
:102E500020640020BAE7000008B501460020009079
:102E600000BF91F83C00012801D1022008BD0120DB
:102E700081F83C0000BF0868806800F00100A0B93C
:102E80000868806840F001000B6898603B48006863
:102E90003B4BB0FBF3F000EB4000009002E00098E9
:102EA000401E009000980028F9D10868806800F062
:102EB000010000285FD0086C40F20163984340F4A1
:102EC000807008640868406800F4806028B1086C6D
:102ED00020F4005040F480500864086C00F48050E6
:102EE000B0F5805F04D1486C20F00600486401E032
:102EF0000020486400BF002081F83C0000BF214A48
:102F00006FF022000B681860506800F01F0018BBBB
:102F10001D4B0868984213D01C4B0868984204D196
:102F2000101D006800F01F0050B1194B086898424E
:102F300021D11448001D006800F01F0010281AD28B
:102F40000868806800F0405028B90868806840F040
:102F500080400B6898600EE00B4B086898420AD1DD
:102F60000868806800F0405028B90868806840F020
:102F700080400B689860002078E700002400002063
:102F800040420F0000230140002001400021014089
:102F90000022014010B5024692F82030012B01D0EA
:102FA000022B06D110684069084314686061002054
:102FB00010BD506A40F4802050620120F8E7F0B55F
:102FC00004460D461E4694F8207020688368A86861
:102FD00000B900E000BF012F01D0022F7CD103F027
:102FE000806030B903F0006018B903F08050002809
:102FF00073D0C3F30161022905D9606A40F400006F
:1030000060620120F0BD012088403060A86860B98E
:10301000B5F800C0E86840EA4C5C206800F5C07074
:1030200000EB0110C0F800C00FE0D5E901C040EA94
:10303000CC00D5F80CC040EA0C00D4F800C00CF568
:10304000C07C0CEB011CCCF80000D5F810C0206847
:1030500000F5C07000EB0110C0F804C0287D012805
:103060000ED1206800F5C07000EB0110406840F4FC
:10307000807C206800F5C07000EB0110C0F804C02F
:10308000D079000692F806C040EA0C4092F805C0DC
:1030900040EA0C2C10794CEA000C206800F5C07056
:1030A00000EB0110C0F80CC0D078000692F802C006
:1030B00040EA0C4092F801C040EA0C2092F800C0AF
:1030C00040EA0C00D4F800C00CF5C07C0CEB011CED
:1030D000CCF80800206801E016E00FE000F5C070B1
:1030E00000EB0110006840F0010C206800F5C07092
:1030F00000EB0110C0F800C0002083E7606A40F4D4
:103100000010606201207DE7606A40F48020606208
:10311000012077E7F0B504460A46216894F820506C
:10312000012D01D0022D7ED1424901F500710868C0
:1031300040F001000860086820F47C5008600868CE
:10314000566A40EA06200860107D00F01F06012044
:1031500000FA06F3C8699843C861A1F50071D06907
:10316000C8B9D1F80C029843C1F80C02908880B21B
:10317000968940EA064601F51070576940F83760B5
:10318000108880B2168940EA064601F5107057692A
:1031900000EBC7004660D069012819D1D1F80C02B4
:1031A0001843C1F80C02908880B2168840EA06469F
:1031B00001F51070576940F83760908980B2168920
:1031C00040EA064601F51070576900EBC7004660FB
:1031D000906928B9D1F804029843C1F8040204E0C8
:1031E000D1F804021843C1F80402106928B9D1F8D3
:1031F00014029843C1F8140204E0D1F814021843F1
:10320000C1F81402106A012804D1D1F81C02184335
:10321000C1F81C02D1F8000220F00100C1F8000240
:103220000020F0BDFFE7606A40F48020606201206A
:10323000F7E7000000640040704770B5044694F85A
:103240002050012D01D0022D7CD151B92068C068D9
:1032500000F0030080B9606A40F400106062012051
:1032600070BD2068006900F0030028B9606A40F46E
:10327000001060620120F3E7206800F5D87000EBD1
:103280000110006800F004009060906840B9206868
:1032900000F5D87000EB01100068400D106007E0E9
:1032A000206800F5D87000EB01100068C00850607D
:1032B000206800F5D87000EB0110006800F00200F3
:1032C0004008D060206800F5D87000EB011040681D
:1032D00000F00F001061206800F5D87000EB0110BD
:1032E000406800F47F40000A9061206800F5D870C3
:1032F00000EB01104068000C5061206800F5D870A8
:1033000000EB011080681870206800F5D87000EBA1
:103310000110806800F47F40000A5870206800F5B2
:10332000D87000EB0110806800F47F00000C9870EA
:10333000206800F5D87000EB01108068000ED8708E
:10334000206800E031E000F5D87000EB0110C068A3
:103350001871206800F5D87000EB0110C06800F407
:103360007F40000A5871206800F5D87000EB01100A
:10337000C06800F47F00000C9871206800F5D870D8
:1033800000EB0110C068000ED87131B92068C06828
:1033900040F020002668F06005E02068006940F0F9
:1033A00020002668306100205AE7606A40F48020DF
:1033B0006062012054E72DE9F05F04460025206893
:1033C00046692068D0F80490206887682068D0F8A3
:1033D0000CA02068D0F810B02068D0F8188006F053
:1033E0000100002855D007F00100C0B1012021687C
:1033F000886007F0020018B1204601F01AF80EE0CC
:1034000007F0040010B145F4006508E007F008007B
:1034100010B145F4805502E0204601F009F807F4A8
:103420008070C8B14FF480702168886007F4007024
:1034300018B1204600F0FFFF0EE007F4806010B1E5
:1034400045F4005508E007F4006010B145F48045EC
:1034500002E0204600F0EEFF07F48030C8B14FF4E0
:1034600080302168886007F4003018B1204600F0F1
:10347000E4FF0EE007F4802010B145F4004508E0B9
:1034800007F4002010B145F4803502E0204600F03A
:10349000D3FF06F0080038B10AF0100020B145F45F
:1034A000007510202168C86006F0040040B10AF0E1
:1034B000080028B108202168C860204600F00CFAF6
:1034C00006F0020038B12068C06800F0030010B1B7
:1034D000204600F003FA06F0400038B10BF010006F
:1034E00020B145F4806510202168086106F02000B5
:1034F00040B10BF0080028B108202168086120467F
:1035000000F064FF06F0100038B12068006900F098
:10351000030010B1204600F05AFF06F4003040B11D
:1035200009F0100028B1102021684860204600F002
:103530004FFF06F4803040B109F0080028B10820A0
:1035400021684860204600F079FF06F4004088B307
:1035500009F0040078B306F4807020B108F001008F
:1035600008B145F0010506F4007020B108F0020032
:1035700008B145F0020506F4806020B108F00400AF
:1035800008B145F0040506F40060A0B108F0700031
:1035900088B108F07000402817D006DC10280BD046
:1035A00020280CD0302819D10CE0502810D06028E9
:1035B00014D110E01DE019E045F008050FE045F0DA
:1035C00010050CE045F0200509E045F0400506E057
:1035D00045F0800503E045F4807500E000BF00BFC2
:1035E0002068806920F070002168886104202168CB
:1035F00048602DB1606A284360622046FFF71CFED8
:10360000BDE8F09F70B504460CB9012070BD94F878
:10361000200010B9204600F0AFF82068006820F0C4
:1036200002002168086001F0ABF805460DE001F0EA
:10363000A7F8401B0A2808D9606A40F4003060628D
:10364000052084F820000120E0E72068406800F0B1
:1036500002000028EBD12068006840F001002168DA
:10366000086001F08DF805460DE001F089F8401B77
:103670000A2808D9606A40F400306062052084F8A6
:1036800020000120C2E72068406800F00100002807
:10369000EBD0207E012806D12068006840F0800031
:1036A0002168086005E02068006820F0800021683B
:1036B0000860607E012806D12068006840F0400064
:1036C0002168086005E02068006820F0400021685B
:1036D0000860A07E012806D12068006840F0200024
:1036E0002168086005E02068006820F0200021685B
:1036F0000860E07E012806D12068006820F01000F4
:103700002168086005E02068006840F0100021682A
:103710000860207F012806D12068006840F008007A
:103720002168086005E02068006820F00800216832
:103730000860607F012806D12068006840F004001E
:103740002168086005E02068006820F00400216816
:103750000860D4E90201084321690843616908430C
:103760006168491E08432168C86100206062012029
:1037700084F82000002049E710B586B004461421E3
:1037800001A8FDF70BFB4E492068884241D14D4806
:103790000068401C4B4908600846006801280FD1AA
:1037A00000BF002000904848006840F00070464983
:1037B00008600846006800F00070009000BF00BF7D
:1037C00000BF0020009040481038006840F008001A
:1037D0003D49103908600846006800F00800009074
:1037E00000BF00BF03200190022002900020039040
:1037F000032004900920059001A9344800F0BAFE86
:1038000000221146142001F02BFA142001F018FABE
:1038100054E02F492068884250D100BF002000901A
:103820002948006840F08060274908600846006821
:1038300000F08060009000BF00BF22480068401C7C
:10384000204908600846006801280FD100BF002009
:1038500000901D48006840F000701B490860084651
:10386000006800F00070009000BF00BF00BF0020A3
:10387000009015481038006840F0020012491039D5
:1038800008600846006800F00200009000BF00BF1A
:1038900060200190022002900020039003200490F9
:1038A0000920059001A90B4800F064FE0022114692
:1038B000402001F0D5F9402001F0C2F906B010BD5A
:1038C000006400400000002040380240000C02402C
:1038D0000068004000040240704700002DE9F041FC
:1038E0002DED068B88B00546FE4885427DD1FE4B06
:1038F00001AA0021FFF7A1FC002822D140F20521F6
:10390000019888421ED1F8484078F749097840EA82
:10391000012000B2F5490880F348C078F24989785F
:1039200040EA012000B2F1494880EF484079EE4971
:10393000097940EA012000B2EC498880EA488079A0
:10394000C8805CE240F206210198884207D1E6492E
:10395000E748FEF7D7FB0120E6490871F1E740F29E
:1039600007210198884208D1DF49E1480C30FEF771
:10397000C9FB0120DF494871E3E742F6671102986D
:10398000884248D1D8484078D749097840EA012090
:1039900000B200EE100AD448C078D349897840EAD2
:1039A000012000B200EE900ACF484079CE49097953
:1039B00040EA012000B201EE100AF8EEC01A9FEDB5
:1039C000CE2A61EE821ACD48C0ED0A1AF8EEE01A4E
:1039D000B2EE042A61EE821AC0ED0B1AF8EEC11A9B
:1039E0009FEDC72A61EE821A00E0FDE3C0ED0C1ADC
:1039F000BD48807901EE900AF8EE611ABF48C0ED2B
:103A00000D1AB948C07901EE900AF8EE611ABB4868
:103A1000C0ED0E1A95E742F668110298884246D129
:103A2000B1484078B049097840EA012000B200EE80
:103A3000100AAD48C078AC49897840EA012000B24C
:103A400000EE900AA8484079A749097940EA012088
:103A500000B201EE100AF8EEC01A9FEDA72A61EE3F
:103A6000821AA648C0ED0F1AF8EEE01AB2EE042A48
:103A700061EE821AC0ED101AF8EEC11A9FEDA02A6D
:103A800061EE821AC0ED111A9748807901EE900A12
:103A9000F8EE611A9948C0ED121A9348C07901EE08
:103AA000900AF8EE611A9548C0ED131AA7E142F6A4
:103AB00066110298884246D18B4840788A49097835
:103AC00040EA012000B200EE100A8748C07886491B
:103AD000897840EA012000B200EE900A82484079DD
:103AE0008149097940EA012000B201EE100AF8EE9E
:103AF000C01A9FED812A61EE821A8048C0ED051A36
:103B0000F8EEE01AB2EE042A61EE821AC0ED061A4F
:103B1000F8EEC11A9FED7A2A61EE821AC0ED071AFB
:103B20007148807901EE900AF8EE611A7348C0ED91
:103B3000081A6D48C07901EE900AF8EE611A6F48D4
:103B4000C0ED091A5BE142F665110298884246D140
:103B5000654840786449097840EA012000B200EEE7
:103B6000100A6148C0786049897840EA012000B2B3
:103B700000EE900A5C4840795B49097940EA0120EF
:103B800000B201EE100AF8EEC01A9FED5B2A61EE5A
:103B9000821A5A48C0ED001AF8EEE01AB2EE042A72
:103BA00061EE821AC0ED011AF8EEC11A9FED542A97
:103BB00061EE821AC0ED021A4B48807901EE900A3C
:103BC000F8EE611A4D48C0ED031A4748C07901EE7E
:103BD000900AF8EE611A4948C0ED041AE1E342F692
:103BE00064110298884246D13F4840783E4909789E
:103BF00040EA012000B200EE100A3B48C0783A4982
:103C0000897840EA012000B200EE900A36484079F7
:103C10003549097940EA012000B201EE100AF8EEB8
:103C2000C01A9FED352A61EE821A3448C0ED141A8D
:103C3000F8EEE01AB2EE042A61EE821AC0ED151A0F
:103C4000F8EEC11A9FED2E2A61EE821AC0ED161A07
:103C50002548807901EE900AF8EE611A2748C0EDF8
:103C6000171A2148C07901EE900AF8EE611A23482C
:103C7000C0ED181A95E342F663110298884258D1B4
:103C8000194840781849097840EA012000B200EE4E
:103C9000100A1548C0781449897840EA012000B21A
:103CA00000EE900A104840790F49097940EA012056
:103CB00000B201EE100AF8EEC01A9FED0F2A61EE75
:103CC000821A0E48C0ED191AF8EEE01AB2EE042A74
:103CD00061EE821AC0ED1A1AF8EEC11A9FED082A99
:103CE00010E000001C080020AC000020307700200D
:103CF00094780020088D0020CDCCCC3D4477002066
:103D00000AD7233C61EE821AC0ED1B1AFE48807967
:103D100001EE900AF8EE611AFC48C0ED1C1AFA4850
:103D2000C07901EE900AF8EE611AF848C0ED1D1A4C
:103D300037E30198052863D1F34803788078F24986
:103D4000497840EA0126F048C0780001EE49097937
:103D500040EA2117EC484079EB49097901F00F015D
:103D600040EA0124E848807903EE900A1021F2EE3F
:103D7000090ABAEE090A30460AF0EAFBB0EE404AF8
:103D80000C21DFEDE30A9FEDE30A38460AF0E0FB81
:103D9000F0EE404A0C21F2EE0E0ABAEE0E0A204670
:103DA0000AF0D6FBB0EE405AB8EEE30AF0EE405A05
:103DB000052B24D1B1EE440A581E00EB8000D649F1
:103DC00001EB800080ED000AB1EE640A581E00EBA2
:103DD000800001EB800080ED010A581E00EB80009E
:103DE00001EB800080ED025A9FEDCC0A35EEC00A4F
:103DF000581E00EB800001EB800080ED030AD0E24A
:103E0000019806285FD1C04803788078BE49497878
:103E100040EA0127BC48C0780001BB49097940EA63
:103E20002116B9484079B849097901F00F0140EAF3
:103E30000124B548807903EE900A1021F2EE090AB8
:103E4000BAEE090A38460AF083FBB0EE404A0C216C
:103E5000DFEDAF0A9FEDAF0A30460AF079FBF0EED6
:103E6000404A0C21F2EE0E0ABAEE0E0A20460AF083
:103E70006FFBB0EE405AB8EEE30AF0EE405A062B64
:103E800020D1581E00EB8000A34901EB800080ED9B
:103E9000004A581E00EB800001EB8000C0ED014A93
:103EA000581E00EB800001EB800080ED025A9FED70
:103EB0009B0A35EEC00A581E00EB800001EB800023
:103EC00080ED030A6DE2019801286DD19FED941AEF
:103ED000DFED940ABAEE090A8B49934805F0FAF827
:103EE0008948047880788849497840EA01268648DC
:103EF000C07800018449097940EA21178248407955
:103F00008149097901F00F0140EA01287E48807952
:103F100008EE100A1021F2EE090ABAEE090A30463C
:103F20000AF016FBF0EE408A0C21DFED7E0A9FEDD1
:103F30007F0A38460AF00CFBB0EE409A0C21DFED08
:103F4000780A9FED7B0A40460AF002FBF0EE409AA9
:103F5000B8EEC80AB0EE40AA012C24D1601E00EBD6
:103F600080006D4901EB8000C0ED008A601E00EB0F
:103F7000800001EB800080ED019A601E00EB800064
:103F800001EB8000C0ED029A9FED640A3AEE400A10
:103F9000601E00EB800001EB800080ED030A012130
:103FA000601E644A1154FCE1019802286ED19FED15
:103FB0005C1ADFED5C0ABAEE090A53495A48183018
:103FC00005F088F85048047880784F49497840EAED
:103FD00001264D48C07800014B49097940EA211774
:103FE000494840794849097901F00F0140EA012820
:103FF0004548807908EE100A1021F2EE090ABAEE5F
:10400000090A30460AF0A4FAF0EE408A0C21DFEDEE
:10401000450A9FED460A38460AF09AFAB0EE409AF1
:104020000C21DFED3F0A9FED420A40460AF090FA6C
:10403000F0EE409AB8EEC80AB0EE40AA022C24D1A5
:10404000601E00EB8000344901EB8000C0ED008A67
:10405000601E00EB800001EB800080ED019A601E85
:1040600000EB800001EB8000C0ED029A9FED2B0A6F
:104070003AEE400A601E00EB800001EB800080ED0C
:10408000030A0121601E2B4A11548AE1019803287A
:104090007ED19FED231ADFED230ABAEE090A1A49F1
:1040A0002148303005F016F81F4890ED0D0AB1EEAA
:1040B000400A80ED0D0A90ED0E0AB1EE400A80ED47
:1040C0000E0A1148047880780F49497840EA0126A1
:1040D0000D48C07800010C49097940EA21170A48C7
:1040E00040790949097901F00F0140EA01280648A1
:1040F000807908EE100A1021F2EE090ABAEE090AD8
:1041000030460AF025FA17E0AC0000204477002082
:1041100000003442000034C2BC770020000020427E
:10412000000082420000484234780020000048C26B
:10413000000082C2088D0020F0EE408A0C215FED65
:10414000070A1FED060A38460AF002FAB0EE409A56
:104150000C215FED0D0A1FED0A0A40460AF0F8F93E
:10416000F0EE409AB8EEC80AB0EE40AA032C2AD16D
:10417000B1EE680A601E00EB80008C4901EB800004
:1041800080ED000AB1EE490A601E00EB800000E0FD
:104190001AE001EB800080ED010A601E00EB800058
:1041A00001EB8000C0ED029A1FED240A3AEE400AAE
:1041B000601E00EB800001EB800080ED030A01210E
:1041C000601E7B4A1154ECE001980428FBD11FEDDE
:1041D0002C1A5FED2C0ABAEE090A7649764804F0EB
:1041E00079FF7548483800E073E090ED130AB1EEAE
:1041F000400A80ED130A90ED140AB1EE400A80EDFA
:10420000140A6C48047880786A49497840EA0126A3
:104210006848C07800016749097940EA2117654874
:1042200040796449097901F00F0140EA01286148A9
:10423000807908EE100A1021F2EE090ABAEE090A96
:1042400030460AF085F9F0EE408A0C215FED4B0A0A
:104250001FED4A0A38460AF07BF9B0EE409A0C216D
:104260005FED510A1FED4E0A40460AF071F9F0EE7B
:10427000409AB8EEC80AB0EE40AA042C28D1B1EE9C
:10428000680A601E00EB8000484901EB800080ED69
:10429000000AB1EE490A601E00EB800001EB8000CD
:1042A00080ED010A601E00EB800001EB8000C0ED94
:1042B000029A1FED660A3AEE400A601E00EB80008B
:1042C00001EB800080ED030A0121601E384A115481
:1042D00067E03A48854264D1364B01AA0021FEF7D7
:1042E000ACFF98BB0198B0F5417F15D131480079FA
:1042F0008DF800002F4840798DF801002D48807915
:104300008DF802002B48C0798DF803009DED000A5E
:104310002B4880ED000A43E040F2033101988842C7
:1043200015D1244800788DF80000224840788DF897
:104330000100204880788DF802001E48C0788DF872
:1043400003009DED000A1E4880ED010A28E040F2BE
:1043500002310198884223D11648407815490978DE
:1043600040EA012000B2174948801248807800EEE8
:10437000100AB8EE400A144880ED150A0D48C078BE
:1043800000EE100AB8EE400A0F4880ED160A094800
:10439000007900EE100AB8EE400A0B4880ED170ACB
:1043A00000BF08B0BDEC068BBDE8F081BC770020F3
:1043B000088D0020AC0000207C78002044080020FC
:1043C000A40000209C000020C48400207047704797
:1043D000704770B5044694F82000012822D10220CD
:1043E00084F820002068006820F00100216808603F
:1043F00000F0C6F905460DE000F0C2F9401B0A289E
:1044000008D9606A40F400306062052084F820001A
:10441000012070BD2068406800F001000028EBD149
:104420006062F6E7606A40F4002060620120F0E715
:10443000704770477047704770477047704700007B
:104440002DE9F0410446002500F09AF9074614B919
:104450000120BDE8F081606A00B100BF00BF00200C
:1044600084F8340000BF022084F83500206800681A
:1044700020F00100216808600AE000F081F9C01B0B
:10448000052805D920206065032084F83500E0E781
:104490002068006800F001000028EED1206805685F
:1044A00021480540D4E901010843E1680843216936
:1044B000084361690843A1690843E1690843216A27
:1044C00008430543606A042803D1D4E90B0108437B
:1044D0000543206805602068456925F00705606A86
:1044E0000543606A04280DD1A06A0543E06A48B11B
:1044F0002046FDF7A9FE28B140206065012084F820
:104500003500A6E7206845612046FDF783FE064694
:1045100094F85C103F208840B06000206065012066
:1045200084F83500002094E73F8010F070B5044611
:1045300000F026F906462546681C10B104480078AC
:10454000054400BF00F01CF9801BA842FAD370BDDF
:10455000200000207047000010B5044604480068A1
:10456000204020B1024804602046FFF7F3FF10BD51
:10457000143C0140F8B502460B46002500240020FB
:104580000021DCE0012606FA01F51E6806EA0504B2
:10459000AC4273D15E68022E02D05E68122E13D137
:1045A000CF0802F1200656F827004E07F70E0F2617
:1045B000BE40B0434F07FF0E1E69BE403043CF08D8
:1045C00002F1200646F8270010684F000326BE407F
:1045D000B0431E7906F003064F00BE403043106022
:1045E0005E68012E08D05E68022E05D05E68112E2E
:1045F00002D05E68122E13D190684F000326BE4091
:10460000B0434F00DE68BE403043906050680126E2
:104610008E40B0431E79C6F300168E403043506082
:10462000D0684F000326BE40B0434F009E68BE4096
:104630003043D0605E6806F08056B6F1805F7DD171
:1046400000BF00260096404E366846F480463E4F36
:104650003E603E46366806F48046009600BF00BFC6
:104660003A4E8F0856F827008E07370F0F26BE40A8
:10467000B043374EB24202D1002624E05EE0354E10
:10468000B24201D101261EE0334EB24201D10226D0
:1046900019E0324EB24201D1032614E0304EB2424C
:1046A00001D104260FE02F4EB24201D105260AE0C7
:1046B0002D4EB24201D1062605E02C4EB24201D168
:1046C000072600E008268F073F0FBE4030431F4EED
:1046D0008F0846F82700264E3068A0435E6806F42F
:1046E0008036B6F5803F00D12043214E3060361D24
:1046F0003068A0435E6806F40036B6F5003F00D18E
:1047000020431B4E361D3060361D3068A0435E6866
:1047100006F48016B6F5801F00D12043144E0836EB
:104720003060361D3068A0435E6806F40016B6F5AA
:10473000001F00D120430E4E0C363060491C10295A
:10474000FFF420AFF8BD00004438024008380140B3
:10475000000002400004024000080240000C024039
:10476000001002400014024000180240001C0240E9
:10477000003C01400AB1816101E00B048361704794
:1047800001480068704700001800002070B504461A
:104790000CB9012070BD94F83D0028B9002084F8C0
:1047A0003C00204600F0CEF8242084F83D0020682C
:1047B000006820F001002168086000F039FC05461F
:1047C0005C496068884206D85B48854201D2012076
:1047D00007E0002005E05948854201D2012000E0B1
:1047E0000020012800D1D5E75548B5FBF0F6206838
:1047F000406820F03F003043216848604D496068C0
:10480000884201D8701C07E04FF4967070434FF453
:104810007A71B0FBF1F0401C2168096A21F03F0178
:1048200008432168086243496068884214D8681EBA
:1048300061684900B0FBF1F0401CC0F30B00042894
:1048400001D204203DE0681E61684900B0FBF1F030
:10485000401CC0F30B0034E0A06838B9681E6168E2
:1048600001EB4101B0FBF1F0401C0AE0681E6168F9
:1048700001EBC10202EB0111B0FBF1F0401C40F46E
:104880008040C0F30B0008B901201AE0A06848B9C5
:10489000681E616801EB4101B0FBF1F0401CC0F300
:1048A0000B000CE0681E616801EBC10202EB011114
:1048B000B0FBF1F0401CC0F30B0040F4804040F42A
:1048C00000402168C9694CF6FF7291430843216892
:1048D000C861D4E9070108432168096821F0C001D3
:1048E000084321680860D4E90310084321688968F7
:1048F00048F2FF329143084321688860D4E90501FA
:1049000008432168C96821F0FF0108432168C86095
:104910002068006840F001002168086000202064E1
:10492000202084F83D000020206384F83E0000BF72
:1049300030E70000A086010080841E0000093D00D1
:1049400040420F0010B586B00446142101A8FCF7C0
:1049500025FA73492068884230D100BF00200090BA
:104960007048006840F002006E4908600846006820
:1049700000F00200009000BF00BF4FF440700190B3
:10498000122002900120039003200490042005903F
:1049900001A96548FFF7EEFD00BF002000906148C7
:1049A0001030006840F400105E491031086008467D
:1049B000006800F40010009000BFAFE05B49206881
:1049C000884259D100BF002000905648006840F04E
:1049D0002000544908600846006800F0200000905C
:1049E00000BF00BF0320019012200290012003901D
:1049F000032004900420059001A94D48FFF7BAFD5B
:104A000000BF0020009047481030006840F480004C
:104A10004449103108600846006800F480000090A6
:104A200000BF00BF4348444908604FF060604860E1
:104A30004021414881600021C1604FF480610161E3
:104A4000002141618161C1614FF4003101620021A7
:104A50004162FFF7F5FC08B1FDF730FE00BF3648B4
:104A60006063846300BF35480068406840F40060BC
:104A700032490968486051E03149206888424DD187
:104A800000BF002000902748006840F0040025493E
:104A900008600846006800F00400009000BF00BFF6
:104AA00000BF002000900846006840F00100086048
:104AB0000846006800F00100009000BF00BF4815E4
:104AC0000190122002900120039003200490042002
:104AD000059001A91B48FFF74DFD4FF48070019030
:104AE00012200290012003900320049004200590DE
:104AF00001A91548FFF73EFD00BF002000900948BE
:104B00001030006840F40000064910310860084683
:104B1000006800F40000009000BF00BF06B010BDA8
:104B20000054004030380240000402400058004069
:104B300000140240B860024010100020680F0020EE
:104B4000005C00400008024000000240034800688A
:104B5000034909780844014908607047180000209B
:104B60002000002010B50D48006840F400700B498B
:104B700008600846006840F48060086008460068E5
:104B800040F480700860032000F0A8F80F2000F0C7
:104B900007F800F02BF8002010BD0000003C024098
:104BA00070B504460E4800784FF47A71B1FBF0F00E
:104BB0000C490968B1FBF0F5284600F0ACFF08B1DC
:104BC000012070BD102C07D200222146501E00F09B
:104BD00047F80548046001E00120F2E70020F0E713
:104BE00020000020240000201C00002008B500BF89
:104BF000002000901148006840F480400F49086090
:104C00000846006800F48040009000BF00BF00BF6D
:104C100000200090081F006840F08050091F0860C5
:104C20000846006800F08050009000BF00BF0022DE
:104C30000F21901E00F014F808BD00004438024017
:104C400001460846002809DB00F01F0301229A40B4
:104C500043099B0003F1E023C3F8002100BF704724
:104C60002DE9F05F80460D461646002706F076F8DF
:104C7000074639462A46334601F00700C0F1070AC5
:104C8000BAF1040F02D94FF0040A01E0C0F1070A9B
:104C9000D14600F1040ABAF1070F02D24FF0000A20
:104CA00001E0A0F1030AD4464FF0010A0AFA09FA1A
:104CB000AAF1010A0AEA020A0AFA0CFA4FF0010BF9
:104CC0000BFA0CFBABF1010B0BEA030B4AEA0B04EA
:104CD0002146404606F04AF8BDE8F09F00BF00F0CC
:104CE0000702064B19684FF6FF031940044B0B43AC
:104CF00043EA0221014B196000BF70470CED00E050
:104D00000000FA05F8B5044600250026207800F0DA
:104D1000010020B9207800F0040004282FD10020E1
:104D20005B498866FFF72CFD054606E0FFF728FD86
:104D3000401B022801D90320F8BD56480068C0F383
:104D4000C0600028F2D160688101207A41EA0070D9
:104D500050498431086001204D498866FFF710FDF5
:104D6000054606E0FFF70CFD401B022801D9032091
:104D7000E2E748480068C0F3C0600028F2D020781D
:104D800000F0020002287DD100BF002000904148C1
:104D90004030006840F080503E494031086008468D
:104DA000006800F08050009000BF00BF3A480068E3
:104DB00040F4807038490860FFF7E2FC054606E0E1
:104DC000FFF7DEFC401B022801D90320B4E732487C
:104DD000006800F480700028F2D02E48703000681F
:104DE00000F440764EB3A08900F44070B04224D065
:104DF00028487030006820F4407601202749086078
:104E000000200860234870300660006800F0010050
:104E100098B1FFF7B5FC054608E0FFF7B1FC401B71
:104E200041F28831884201D9032085E71948703062
:104E30000068C0F340000028EFD000BFA08900F454
:104E40004070B0F5407F0CD112480830006820F463
:104E5000F810134AE168114008430E490831086010
:104E600007E00C480830006820F4F81009490831C0
:104E70000860084870300068A189C1F30B0108433D
:104E8000044900E002E07031086000BF002053E7F1
:104E9000000047420038024000700040400E474288
:104EA000FFFCFF0F70B504460D460CB9012070BD24
:104EB0005848006800F00F00A84209D255490D700B
:104EC0000846006800F00F00A84201D00120EEE77C
:104ED000207800F0020002281DD1207800F00400A4
:104EE000042805D14C48006840F4E0504A49086065
:104EF000207800F00800082805D14748006840F4F1
:104F00006040454908604448006820F0F000A1680E
:104F1000084341490860207800F00100A8B36068A8
:104F2000012807D13C4808380068C0F34040B8B9B0
:104F30000120BCE76068022802D06068032807D11E
:104F4000354808380068C0F3406048B90120AEE732
:104F5000314808380068C0F3400008B90120A6E7CE
:104F60002D48006820F00300616808432A49086062
:104F7000FFF706FC064609E0FFF702FC801B41F242
:104F80008831884202D9032091E707E0224800686F
:104F900000F00C006168B0EB810FEDD11D48006896
:104FA00000F00F00A84209D91A490D7008460068A0
:104FB00000F00F00A84201D0012078E7207800F02F
:104FC0000400042807D11448006820F4E050E16888
:104FD000084311490860207800F00800082808D12B
:104FE0000D48006820F46040216940EAC1000A4988
:104FF000086000F03DF808490968C1F30311074A49
:10500000515CC840064908600F20FFF7C9FD002029
:105010004DE70000003C024008380240C8FA000892
:105020002400002001480068704700002400002090
:1050300000B5FFF7F7FF04490968C1F38221034A6D
:10504000515CC84000BD000008380240D8FA000892
:1050500000B5FFF7E7FF04490968C1F34231034A8D
:10506000515CC84000BD000008380240D8FA000872
:105070002DE9F047002400250026A14625480068B8
:1050800000F00C0020B1042805D008283AD105E032
:10509000DFF8849039E0DFF8849036E01D48001F87
:1050A000006800F03F041B48001F006800F4800007
:1050B00078B11A481749091F0968C1F38811A0FB84
:1050C00001700146224600233846FBF71DFE0546C7
:1050D0000EE011480F49091F0968C1F38811A0FBB0
:1050E00001700146224600233846FBF70DFE0546B7
:1050F0000848001F0068C0F30140401C4600B5FB93
:10510000F6F902E0DFF8109000BF00BF4846BDE8A6
:10511000F0870000083802400024F400001BB700AC
:10512000F8B504460CB90120F8BD207800F0010064
:10513000002874D0F948006800F00C0004280DD055
:10514000F648006800F00C00082813D1F348001F4F
:10515000006800F48000B0F5800F0BD1EF480838EC
:105160000068C0F34040002859D06068002856D13C
:105170000120D9E700BF6068B0F5803F08D1E7485B
:105180000838006840F48030E449083908601EE0BF
:105190006068B0F5A02F0DD1E0480838006840F4F1
:1051A0008020DE49083908600846006840F48030F5
:1051B00008600CE0D9480838006820F48030D749EE
:1051C000083908600846006820F48020086000BFA5
:1051D000606890B1FFF7D4FA054606E0FFF7D0FA11
:1051E000401B642801D903209EE7CC48083800689A
:1051F000C0F340400028F1D011E0FFF7C1FA0546A6
:1052000006E0FFF7BDFA401B642801D903208BE7B5
:10521000C24808380068C0F340400028F1D1207827
:1052200000F0020002285FD1BC48006800F00C00CA
:1052300058B1BA48006800F00C0008281CD1B748E3
:10524000001F006800F48000B0B9B4480838006856
:10525000C0F3400020B1E068012801D0012063E7DD
:10526000AE480838006820F0F800216940EAC10023
:10527000AA490839086037E0E06800B30120A8496E
:105280000860FFF77DFA054606E0FFF779FA401B54
:10529000022801D9032047E7A04808380068C0F376
:1052A00040000028F1D09D480838006820F0F80040
:1052B000216940EAC10099490839086014E00020DA
:1052C00097490860FFF75CFA054606E0FFF758FAD1
:1052D000401B022801D9032026E7904808380068BF
:1052E000C0F340000028F1D1207800F00800082821
:1052F0002CD16069A8B101208A490860FFF740FA03
:10530000054606E0FFF73CFA401B022801D90320BE
:105310000AE782486C300068C0F340000028F1D0F2
:1053200014E000207F490860FFF72AFA054606E0EE
:10533000FFF726FA401B022801D90320F4E677483C
:105340006C300068C0F340000028F1D1207800F0F4
:105350000400042870D1002670483830006800F03E
:10536000805090B900BF002000906C483830006831
:1053700040F080506949383108600846006800F004
:105380008050009000BF00BF01266748006800F40D
:105390008070B0B96448006840F480706249086069
:1053A000FFF7EEF9054606E0FFF7EAF9401B022891
:1053B00001D90320B8E65C48006800F4807000283A
:1053C000F2D000BFA068012808D1544868300068B6
:1053D00040F001005149683108601DE0A0680528CF
:1053E0000DD14E486830006840F004004B496831E8
:1053F00008600846006840F0010008600CE047487B
:105400006830006820F001004449683108600846AF
:10541000006820F00400086000BFA068A8B1FFF792
:10542000AFF9054609E0FFF7ABF9401B41F28831BF
:10543000884202D9032077E626E0384868300068C1
:10544000C0F340000028EED013E0FFF799F90546BD
:1054500008E0FFF795F9401B41F28831884201D9F5
:10546000032061E62D4868300068C0F34000002842
:10547000EFD1012E07D129483830006820F0805044
:1054800026493831086000BFA069B8B323480068D6
:1054900000F00C0008285ED0A069022846D1002048
:1054A0001F490866FFF76CF9054606E0FFF768F943
:1054B000401B022801D9032036E618480838006846
:1054C000C0F340600028F1D1D4E907010843616AC4
:1054D00040EA81110122A06AC2EB500041EA00417A
:1054E0002C20005D41EA00600C49091F0860012082
:1054F0000B490866FFF744F9054607E02DE0FFF782
:105500003FF9401B022801D903200DE60348083863
:105510000068C0F340600028F1D01EE00838024067
:1055200000004742800E47420070004000200C49B6
:105530000866FFF725F9054606E0FFF721F9401B4D
:10554000022801D90320EFE506480068C0F3406057
:105550000028F2D101E00120E6E50020E4E50000AA
:10556000000047420038024010B504460CB9012043
:1055700010BD607F20B900202077204600F060F841
:105580000220607700BFCA2021684862532021684A
:10559000486200BF204604F068FA40B100BFFF2017
:1055A0002168486200BF042060770120E0E720689E
:1055B0008068224908402168886021696068084342
:1055C0006169084321688968084321688860216807
:1055D000E068086120680169208941EA004021688B
:1055E00008612068C06820F080002168C8602068D9
:1055F000806800F0200060B9204600F02DF840B12E
:1056000000BFFF202168486200BF042060770120AE
:10561000AEE72068006C20F48020216808642068D0
:10562000006CA16908432168086400BFFF2021685D
:10563000486200BF01206077002099E7BFFF8FFF1D
:10564000034A0168914202D10121024A1160704768
:10565000002800403C0E474270B5044600252068F3
:10566000C06820F0A0002168C860FFF789F80546EF
:1056700007E0FFF785F8401BB0F57A7F01D90320DA
:1056800070BD2068C06800F020000028F1D0002024
:10569000F6E710B504460CB9012010BD606A00B9E8
:1056A00000BF0021A16294F8510028B9002084F8BD
:1056B0005000204600F034F8022084F851002068A1
:1056C000006820F0400021680860D4E90101084327
:1056D000E16808432169084361690843218B01F4AB
:1056E00000710843E1690843216A0843A16A08433D
:1056F000216808600421A06901EA1040616A08433A
:10570000216848602068C06920F400602168C86191
:1057100000206065012084F851000020BDE70000F2
:1057200010B586B00446142101A8FBF737FB674982
:10573000206888427ED100BF002000906448006845
:1057400040F48050624908600846006800F48050C8
:10575000009000BF00BF00BF002000905C481438DC
:10576000006840F002005A49143908600846006891
:1057700000F00200009000BF00BF00BF00200090BA
:105780000846006840F0010008600846006800F024
:105790000100009000BF00BF18200190022002907D
:1057A00001200390032004900520059001A9494899
:1057B000FEF7E0FE8020019002200290012003907D
:1057C000032004900520059001A94348FEF7D2FE6E
:1057D0004248434908604FF0C0604860002140489B
:1057E0008160C1604FF4806101610021416181618C
:1057F000C1614FF44031016200214162FEF720FE99
:1058000008B1FCF75BFF00BF3548E064846300BF6C
:1058100032481830334908604FF0C060486040217A
:10582000304881600021C1604FF480610161002136
:10583000416100E010E08161C1614FF4003101621B
:1058400000214162FEF7FCFD08B1FCF737FF00BF05
:105850002448A064846336E023492068884232D11A
:1058600000BF002000901A48001F006840F48040EC
:105870001749091F08600846006800F4804000903E
:1058800000BF00BF00BF002000901148143800681E
:1058900040F002000E49143908600846006800F024
:1058A0000200009000BF00BF4FF460400190022052
:1058B000029001200390032004900520059001A987
:1058C0000448FEF757FE06B010BD0000003001404E
:1058D000443802400004024000000240406402409C
:1058E00040110020A0110020003800402DE9FF5F8A
:1058F0000446884691461D460E9E012002900020D7
:10590000019000BF94F85000012803D1022004B098
:10591000BDE8F09F012084F8500000BFFEF730FF83
:10592000074694F851B060680390AA46BBF1010F96
:105930000BD00398B0F5827F04D1A06810B9BBF1F9
:10594000040F02D002200190DBE0B8F1000F03D079
:10595000B9F1000F00D015B901200190D1E094F801
:105960005100042802D0052084F851000020606511
:10597000C4F83890E587A587C4F83080E586A58609
:10598000206460642068006800F04000402805D072
:105990002068006840F0400021680860E068B0F5C9
:1059A000006F4AD1606810B1BAF1010F09D1206BC4
:1059B00000882168C860206B801C2063E08E401E38
:1059C000E08633E02068806800F00200022810D1F1
:1059D000E08E70B1029801280BD1206B00882168FD
:1059E000C860206B801C2063E08E401EE086002093
:1059F00002902068806800F0010068B1E08F58B123
:105A00002068C068A16B0880A06B801CA063E08F39
:105A1000401EE08701200290FEF7B2FEC01BB0429C
:105A200004D3701C10B1032001906AE0E08E0028BE
:105A3000C8D1E08F0028C5D14AE0606810B1BAF142
:105A4000010F09D1206B007821680873206B401C7E
:105A50002063E08E401EE08634E02068806800F01D
:105A60000200022810D1E08E70B1029801280BD1FB
:105A7000206B007821680873206B401C2063E08E47
:105A8000401EE086002002902068806800F001003F
:105A900068B1E08F58B12068C068A16B0870A06B36
:105AA000401CA063E08F401EE08701200290FEF7BB
:105AB00067FEC01BB04201D3701C00B916B90320A9
:105AC00001901EE0E08E0028C7D1E08F0028C4D1ED
:105AD0003A463146204603F0E7FF20B1012001900D
